:020000040800F2
:100000003009002089010008452C0008391B000830
:10001000412C000861020008592C00080000000073
:100020000000000000000000000000004D2C00084F
:100030006502000800000000492C0008512C00084F
:10004000A3010008A3010008A3010008A301000800
:10005000A3010008A3010008A3010008A3010008F0
:10006000A3010008A3010008A3010008A3010008E0
:10007000A3010008A3010008A3010008A3010008D0
:10008000A3010008A3010008A3010008A3010008C0
:10009000A3010008A3010008A301000869020008E9
:1000A000A3010008A3010008A3010008A3010008A0
:1000B000A3010008A3010008A3010008A301000890
:1000C000A3010008A3010008A3010008A301000880
:1000D000A3010008A3010008A3010008A301000870
:1000E000A3010008A3010008A301000800F002F822
:1000F00000F03AF80AA090E8000C82448344AAF188
:100100000107DA4501D100F02FF8AFF2090EBAE885
:100110000F0013F0010F18BFFB1A43F0010318473B
:10012000D4450000F4450000103A24BF78C878C1D7
:10013000FAD8520724BF30C830C144BF04680C60ED
:10014000704700000023002400250026103A28BF35
:1001500078C1FBD8520728BF30C148BF0B60704739
:100160001FB51FBD10B510BD00F044F81146FFF7D4
:10017000F7FF02F0CFFD00F062F803B4FFF7F2FFE3
:1001800003BC00F065F800000948804709480047B3
:10019000FEE7FEE7FEE7FEE7FEE7FEE7FEE7FEE737
:1001A000FEE7FEE704480549054A064B7047000094
:1001B000552C0008ED000008300300203009002015
:1001C000300500203005002070477047704710B59B
:1001D00000F008F8006810BD10B5044600F002F801
:1001E000046010BD00487047E800002000487047D8
:1001F000E80000207546FFF7F9FFAE4605006946A6
:10020000534620F00700854618B020B5FFF7CAFF17
:10021000BDE820404FF000064FF000074FF0000807
:100220004FF0000BAC46ACE8C009ACE8C009ACE844
:10023000C009ACE8C00921F007018D46704710B530
:100240000446AFF300802046BDE81040FFF795BF9D
:1002500001491820ABBEFEE72600020070470000EF
:10026000FEE7000070470000202000F04BBA0000BD
:1002700090F82020013A012A08D8006800F1140201
:100280000020136819431160704700BF00F1240279
:1002900001204FF48021136819431160704700005A
:1002A00010B590F820E0D0F800C0AEF1010EBEF11C
:1002B000010FDCF808E00FD81EF0E05F16D0CEF397
:1002C000016E012000FA0EF018608B68C3B1486817
:1002D00043EAC00316E000BF00F1240101204FF4FF
:1002E00080220B681A430A6010BD00BF00F1240190
:1002F00001204FF400120B681A430A6010BD00BFC2
:1003000008684305D1E9030403430CEB0E10C0F861
:100310008031C0F88441097D012905D100F5C27101
:100320000B6843F480730B605168C0F88C1112683D
:1003300000F5C071C0F88821002001220B681A4323
:100340000A6010BDB0B5026890F82030013B012B67
:1003500028D8D2F80002012340F00100C2F80002C0
:10036000D1F814E0CC690EF01F0003FA00F0D2F8C7
:100370001C326FEA000C8343012CC2F81C3217D0E8
:100380006CBBD2F80C3203EA0C03C2F80C32CB6817
:100390008C8844EA034302EBCE04C4F840320B4697
:1003A00015E000BF416A41F4802141620120B0BDE7
:1003B000D2F80C320343C2F80C320B688C8844EA42
:1003C000034302EBCE04C4F8403201F10C038C6805
:1003D0001B8843EA044302EBCE04C4F84432D2F84B
:1003E00004328D6943EA0004D1F810E0096A002D57
:1003F00008BF03EA0C04C2F80442D2F81432BEF17A
:10040000000F43EA000408BF03EA0C040129C2F804
:10041000144204D1D2F81C120843C2F81C02D2F8CC
:10042000000220F00100C2F800020020B0BD000070
:10043000B0B5C8B1044690F8200010B9204600F0CD
:1004400071F82068016841F00101016000F07EFA56
:10045000054600BF20684168C90707D100F076FA59
:10046000401B0B28F6D312E00120B0BD016821F03B
:100470000201016000F06AFA054600BF2068416889
:1004800089070DD500F062FA401B0B28F6D3606A8D
:10049000052140F400306062012084F82010B0BDD6
:1004A000217E0268012922F0800208BF80320260AA
:1004B000617E0268012922F0400208BF40320260DA
:1004C000A17E0268012922F0200208BF20320260CA
:1004D000E17E0268012922F0100218BF103202608A
:1004E000217F0268012922F0080208BF0832026059
:1004F000617F0268012922F0040208BF0432026011
:10050000D4E901C2D4E9033561691A432A4311438E
:10051000ACF101021143C16100200121606284F845
:100520002010B0BDB0B586B040F60004C4F201049E
:100530000068A4F5244200219042059102D006B043
:10054000B0BD00BF41F21800C4F20200426802AD23
:1005500042F000724260426802F000720192019A19
:10056000026842F004020260006800F0040001909A
:1005700001984FF40060CDE902010491204629461C
:1005800000F0CCF84FF4805002900220039003203A
:1005900005902046294600F0C1F806B0B0BD000025
:1005A000B0B5044690F8200001281DD1022084F83F
:1005B00020002068016821F00101016000F0C6F907
:1005C000054600BF20684068C00713D000F0BEF9A0
:1005D000401B0B28F6D3606A40F4003060620520AF
:1005E00084F820000120B0BD606A40F40020606201
:1005F0000120B0BD00206062B0BD0000B0B504466F
:1006000000F0A4F9054640F20000C2F200000078B4
:10061000611C18BF044400BF00F098F9401BA042C1
:10062000FAD3B0BD202818BF704770B582B040F231
:100630006815C2F20005288840F6B731884240F2BA
:10064000E01640F24820C2F20006C2F2000021D8B3
:1006500040F2E014C2F20004214601F0C1FD2888F6
:1006600040F6B832013081B29142288018D1D4E9E5
:10067000100147F20003C4F2A703002203F02EF892
:10068000C4E9100140F2E420C2F2000001F04EF98A
:1006900006E000BF40F2E011C2F2000101F02AFEC4
:1006A00041F20000C4F201004FF4005100F040F9A3
:1006B000D6E9180102F024FF05F10C0104220723FA
:1006C000686002F0CBFA40F28120294641F81C0F05
:1006D000287B59228DF8000031F80F0C01F80D2C01
:1006E000ADF8010051F80C0C8DF80320019001F1D8
:1006F0003400A1F114036A46FFF7D2FD02B0BDE851
:100700007040704740F21441C4F201010A6802428D
:1007100014BF08607047FFF785BF00002DE9F04F58
:1007200082B041F20042C4F201020E6804239042FA
:1007300008BF0323002E009300F0F68040F2004C27
:100740004FF6FF7E0022C4F2010C0124C1F2100E0C
:100750004FF0000A4FF0000947E000BF012502F00A
:100760000C040F27A7402BEA070705FA04F43C43C3
:1007700043F82640D1F804B040F20C455FEACB23A1
:10078000DCF8083054BF23EA080343EA0803C4F244
:100790000105CCF808302B685FEA8B2454BF23EAAC
:1007A000080343EA08032B605FEA8B34DCF804306B
:1007B00054BF23EA080343EA08035FEACB34CCF8CA
:1007C0000430DCF800304FF0010454BF23EA080382
:1007D00043EA0803CCF800300E680AF1010A36FA41
:1007E0000AF302F1040200F09F8004FA0AF816EA04
:1007F000080FF1D04B68734512DC122B56D8DFE896
:1008000003F0350B454955555555555555555555D5
:100810005555554D510000BFD1F80C9046E000BF32
:100820004FF6FF75C1F22105AB420FDC0025C1F286
:100830001105AB421AD00025C1F21205AB4215D00A
:100840000025C1F22105AB4210D02FE00025C1F2F6
:100850002205AB420AD00025C1F23105AB4205D0DA
:100860000025C1F23205AB4220D100BF8B684BB1ED
:10087000012B14BFC0F81480C0F810804FF0080995
:1008800014E000BF4FF0040910E000BFCB6803F193
:1008900008090BE04FF0000908E000BFCB6803F146
:1008A000040903E0CB6803F10C0900BF13460546B9
:1008B000BAF1080F24BF203B04352E680F279F4054
:1008C000BE4309FA03F333432B60CB79DB067FF594
:1008D00083AF41F21804C4F2020423684FEA9A0677
:1008E00043F001032360236840F6000403F0010392
:1008F0000193019BACF57E7353F826B0C4F201045A
:10090000A0420FD040F60044C4F20104A0423FF4DC
:1009100025AF41F20004C4F20104009DA04208BFCB
:1009200002251CE700251AE702B0BDE8F08F0000A1
:10093000C26802EA0103914341EA03410161704741
:10094000002A08BF090401617047000040F22C3002
:10095000C2F200000068704770B5B8B3044690F862
:100960003D0028B9002084F83C00204600F002FB3E
:10097000242084F83D002068016821F00101016015
:10098000016841F400410160016821F40041016007
:1009900000F0B6FC48F28041C0F21E0140F60013A0
:1009A000D4F804E088424FF00001C0F23D0348F261
:1009B000A16C4FF0000238BF01219842C0F2010C37
:1009C00038BF0122E64538BF0A460AB1012070BD92
:1009D0004DF68361C4F21B31A0FB01122168950C16
:1009E0004B684FF4967623F03F0343EA92437543F6
:1009F00044F6D3564B60C1F262060B6AA5FB06565D
:100A0000B50923F03F03E64538BF950C6A1C1A432D
:100A10000A62CA6948F2A0664CF6FF73C0F201068A
:100A2000B64522EA03020BD801384FEA4E03B0FB69
:100A3000F3F001306FF31F30042898BF04201EE04C
:100A4000A368013863B119230EFB03F3B0FBF3F085
:100A500001306FF31F3078B100F5804008E000BF2F
:100A60000EEB4E03B0FBF3F001306FF31F3028B1F3
:100A700000F5004003E000BF012000E0012010432A
:100A8000C8610868D4E9072320F0C0001043184368
:100A90000860886848F2FF3204F10C0690434CCE9F
:100AA00018431043A5698860C86820F0FF003043F0
:100AB0002843C860086840F0010008600020202139
:100AC000206484F83D10206384F83E0070BD00006F
:100AD0002DE9F04F85B004460020994616460F4692
:100AE0000490FFF733FF94F83D10202927D10546E5
:100AF000206800BF816989071CD5FFF727FF411BCC
:100B000020681A29F6D381698907F3D500202021AE
:100B1000206384F83D1084F83E00206C04F13C0A08
:100B200040F020002064022000218AF8001005B067
:100B3000BDE8F08FA2461AF83C1F012904D102201B
:100B400005B0BDE8F08F00BF01228AF800200368DD
:100B5000DDE90F180E9ADB0703D1036843F00103A8
:100B60000360036823F400630360222084F83D00DF
:100B7000402084F83E000020206462626185608D20
:100B8000394620850020CFF6FF70E06220463246CD
:100B90004B46CDF80080019500F0D0FF20B1012038
:100BA00005B0BDE8F08F00BF208D022810D00128CD
:100BB00024D0002838D10020039020684169039197
:100BC000816903910399016841F40071016037E084
:100BD0002068016841F400610160EFF3108072B693
:100BE0000020039020684169039181690391039972
:100BF000016821F48061016062B621E0206801682B
:100C000021F480610160EFF3108072B60020039040
:100C1000206841690391816903910399016841F456
:100C20000071016062B60BE02068016841F48061E8
:100C30000160002103914169039180690390039849
:100C4000208D002800F0CA80042740F2E0094BF212
:100C5000895BC0F20107C2F20009C1F2F84B2326FA
:100C600017E000BF204641462A4601F011FA00284D
:100C700095D12068616A00690870606A218D013031
:100C80006062481E2085618D01396185010400F094
:100C9000A58080B2032865D8022800F07F80012853
:100CA000E0D02046394600224346009501F096F8F0
:100CB00000287FF474AF2068016821F4806101602E
:100CC000EFF3108072B62068616A00690870606A8C
:100CD000218D0130013960622185618D0139618585
:100CE000D9F80010C908A1FB0B12110A7143049135
:100CF0000499013904910499002900F07B8021684E
:100D00004A6952071DD404990139049104990029B4
:100D100070D021684A69520713D4049901390491AB
:100D20000499002966D021684A69520709D40499B8
:100D300001390491049900295CD021684A6952075D
:100D4000D6D50A6842F400720A6009690170606AC7
:100D5000218D01306062481E2085608D01386085DC
:100D600062B686E7204641462A4601F091F90028FE
:100D70007FF415AF2068616A00690870606A2268B4
:100D8000411C208D616201382085638D013B6385A4
:100D900053695B077FF57AAF10696DE720463946E6
:100DA00000224346009501F019F800287FF4F7AEC1
:100DB000EFF3108072B62068616A026842F4007234
:100DC000026000690870606A218D01306062481E0F
:100DD0002085608D0138608562B64AE7202084F85E
:100DE0003D00002084F83E0000218AF8001005B084
:100DF000BDE8F08F00202021206384F83D1084F8A6
:100E00003E00206C40F02000206462B601200021EA
:100E10008AF8001005B0BDE8F08F00002DE9F0431E
:100E200083B0994616460F460446FFF78FFD94F8A7
:100E30003D10202920D10546206800BF816989071F
:100E400016D5FFF783FD411B20681A29F6D3816967
:100E50008907F3D500202021206384F83D1084F811
:100E60003E00216C41F02001216484F83C0003E045
:100E700094F83C10012903D1022003B0BDE8F083AF
:100E8000012284F83C200368DDE90B180A9ADB078D
:100E900003D1036843F001030360036823F4006394
:100EA0000360212084F83D00402084F83E000020AB
:100EB000206462626185608D394620850020CFF60E
:100EC000FF70E062204632464B46CDF80080019527
:100ED00000F0C0FE20B1012003B0BDE8F08300BFE8
:100EE000208D98B9204641462A4600F017FF88B366
:100EF000206C0428EFD12068016841F40071016082
:100F0000012003B0BDE8F0830004EBD02046414649
:100F10002A4601F005F90028EAD1616A22680846EC
:100F200010F8013B1361238D6062581E2085678D88
:100F3000013F678557697F07E6D50704E4D0487805
:100F40001061881C6062981E2085618D0139618561
:100F5000DAE700BF2068016841F4007101602020D9
:100F600084F83D00002084F83E0084F83C0003B083
:100F7000BDE8F08310B586B045F200410068C4F2C8
:100F8000000100228842049202D006B010BD00BFCA
:100F900041F21804C4F20204206840F00800206006
:100FA000206800F0080001900198C02002901220F3
:100FB00003900320059001F5384002A9FFF7AEFB2E
:100FC000606840F400106060606800F400100190F8
:100FD000019806B010BD000040F2000040F22C3134
:100FE000C2F20000C2F2000100780A6810440860F2
:100FF0007047000080B542F20000C4F202000168B0
:1010000041F010010160032000F08AF80F2000F089
:1010100005F800F027F8002080BD000070B540F210
:101020000006C2F2000640F2E0013278C2F200018E
:101030004FF47A730968B3FBF2F20446B1FBF2F1A4
:10104000084600F04BFB0F2C4FF0010508D838B9CB
:101050004FF0FF3021460022002500F035F8746083
:10106000284670BD82B041F21800C4F20200016847
:10107000022241F001010160016801F001010191CA
:101080000199416841F080514160406800F0805012
:10109000009000980420C4F20100016862F31A6114
:1010A000016002B070470000002848BF704700F0A0
:1010B0001F01012202FA01F14EF200124009CEF2A4
:1010C000000242F82010704710B54EF60C5CCEF2CC
:1010D000000CDCF80030C3F3022E8EF00704042C61
:1010E00028BF0424BEF103034FF0FF3E0EFA04F4C0
:1010F00038BF0023A14399400EFA03F39A431143EA
:1011000000F00F02043A624409010C3200F160431E
:10111000B0F1FF3FC8BF03F56442117010BD00007D
:101120004EF60C51CEF200010A684FF6FF031A404A
:1011300060F30A2242F0806040F0FD700860704762
:101140002DE9F04381B0002800F0858042F20008CC
:10115000C4F202080446D8F800000D4600F007006B
:1011600088420CD2D8F8000020F007002843C8F8C5
:101170000000D8F8000000F00700A8426BD12068FA
:1011800041F204098107C4F2020917D5410705D5C8
:10119000D9F8001041F4E061C9F80010010705D545
:1011A000D9F8001041F46051C9F80010D9F80010C6
:1011B000A26821F0F0011143C9F80010C00741D125
:1011C000D8F8000000F00700A8420CD9D8F80000B9
:1011D00020F007002843C8F80000D8F8000000F00D
:1011E0000700A84237D12068410707D5D9F8001079
:1011F000E26821F4E0611143C9F80010000708D546
:10120000D9F80000216920F4605040EAC100C9F813
:101210000000D9F8002002F00C00082841F200205C
:10122000C0F27A0050D144F2E263C2F38341C0F6C7
:101230000003595CD2033BD440F60010C0F23D00DD
:10124000484341E0606802280AD001282AD159F8B1
:10125000041C890308D4012001B0BDE8F08300BF5D
:1012600059F8041C8901F6D5D9F8001021F00301C2
:101270000843C9F80000FFF769FB064641F28837CA
:10128000D9F80000616800F00C00B0EB810F97D036
:10129000FFF75CFB801BB842F2D9032001B0BDE828
:1012A000F08300BF59F8041C8907D4D5DCE700BFE0
:1012B000D9F8002044F2E063C2F34042C0F60003D4
:1012C0009A5C4843B0FBF2F0D9F8001044F2C862CF
:1012D000C1F30311C0F60002515C40F2E00220FAB3
:1012E00001F140F20400C2F200000068C2F2000204
:1012F0001160FFF793FE002001B0BDE8F08300000D
:1013000040F2E00041F20401C2F20000C4F2020126
:101310000068096844F2D862C1F30221C0F60002F5
:10132000515CC840704700002DE9F04182B00028B0
:1013300068D00446007841F20006C007C4F20206F5
:1013400025D0706800F00C0004281BD0706800F0F5
:101350000C00082802D17068C00313D4606800280C
:1013600000F06881B0F5A02F00F07C81B0F5803FDF
:1013700000F07C81306820F480303060306820F4E8
:10138000802076E13068800301D56068D0B3207892
:10139000800718D5706810F00C0F07D0706800F047
:1013A0000C0008286ED17068C0036BD430688007C9
:1013B00002D52069012825D13068616920F0F80044
:1013C00040EAC1003060207800071FD42078400731
:1013D00032D4E56995B1706800F00C00082840F03F
:1013E0008F80012D0ED07068216A00F480328A420D
:1013F00008D1616A00F47010884203D1002002B065
:10140000BDE8F081012002B0BDE8F081A0690028AC
:1014100062D00020C4F242200121C0F88014FFF7FE
:1014200095FA0546706A800700F18C80FFF78EFA06
:10143000401B0228F6D92AE1F06910F0805808D143
:10144000F06940F08050F061F06900F08050009049
:10145000009847F20007C4F200073868C00529D495
:10146000386840F480703860FFF770FA054600BFB6
:101470003868C0051ED4FFF769FA401B6428F7D905
:1014800005E100BF2069002840F20000C4F24220BC
:1014900000F0828001210160FFF758FA054600BF85
:1014A000306880073FF588AFFFF750FA401B0228ED
:1014B000F6D9ECE0E068002800F08080052800F014
:1014C0009780012800F09880306A20F00100306297
:1014D000306A20F0040092E00020C4F24220002193
:1014E000C0F88014FFF732FA054600BF706A800723
:1014F0007FF56CAFFFF72AFA401B0228F6D9C6E049
:101500000027C4F2422700203866FFF71FFA022D99
:1015100005460BD13068800140F1BE80FFF716FA16
:10152000401B02284FF00300F4D968E730688001BF
:101530007FF564AFFFF70AFA401B02284FF0030063
:10154000F4D95CE740F2E000C2F20000006844F623
:10155000D351C1F26201A0FB0101480A019000BF12
:1015600000BF0198411E002801913FF42FAF00BF3A
:101570000198411E002801913FF428AF00BF019857
:10158000411E002801913FF421AF00BF0198411E88
:1015900000280191E4D119E700210160FFF7D6F995
:1015A000054600BF306880077FF50DAFFFF7CEF925
:1015B000401B02284FF00300F4D920E7306A20F0E6
:1015C00001003062306A20F004003062FFF7BEF99B
:1015D000054641F2883700BF306A800720D5FFF703
:1015E000B5F9401BB8424FF00300F5D907E700BF3B
:1015F000306A40F004003062306A40F0010030622E
:10160000FFF7A4F9054641F2883700BF306A80072A
:1016100006D4FFF79BF9401BB842F7D937E000BF6B
:10162000B8F1000F7FF4D5AEF06920F08050F06182
:10163000CFE600BF306820F480303060306820F49E
:1016400080203060FFF782F9054600BF30688003D4
:101650007FF59DAEFFF77AF9401B64284FF0030039
:10166000F4D9CCE6306840F480203060306840F433
:1016700080303060FFF76AF9054600BF30688003AC
:101680003FF585AEFFF762F9401B6428F6D90320C9
:1016900002B0BDE8F08100BF206AB0F5803F05D1FF
:1016A0007168A26821F40031114371607168626A47
:1016B00021F4741110430843706001203866FFF76D
:1016C00045F90446306880013FF598AEFFF73EF9D2
:1016D000001B02284FF00300F4D990E6411E0020C1
:1016E000B0EB116F1CBF012070474EF21002CEF21A
:1016F000000251604EF62351CEF20001F0230B7030
:10170000072190601160704710B590F83C20012AC5
:101710004FF0020233D080F83D200268D2F804E096
:10172000D2F808C00C682EF07003234340F2FF7417
:10173000C4F20004A24253600ADCB2F1804F13D01D
:1017400040F20043C4F200039A420DD011E000BF02
:1017500042F60043C4F201039A4205D040F600036A
:10176000C4F200039A4204D149682CF08003194363
:1017700091600121002280F83D1080F83C20104645
:1017800010BD0000002804BF0120704710B50446BA
:1017900090F83D0028B9002084F83C00204600F075
:1017A00067F8022084F83D00206840F2FF73026869
:1017B000C4F2000342F6004C9842C4F2010C15DC5E
:1017C000B0F1804F1AD040F20041C4F200018842CB
:1017D00014D0984218DCB0F1804F1DD040F2004187
:1017E000C4F20001884217D01AE000BF604505D05E
:1017F00040F60001C4F200018842EAD1A16822F05B
:1018000070020A439842E6DD604505D040F60001CB
:10181000C4F20001884203D1216922F440720A43D4
:10182000A36922F08001D4F804E0E268194360451E
:101830000160C262C0F828E002D16169CCF83010C2
:1018400001214161002084F8461084F83E1084F89C
:101850003F1084F8401084F8411084F8421084F856
:10186000431084F8441084F8451084F83D1010BDEE
:1018700082B00068B0F1804F14D042F60041C4F24B
:10188000010188421BD141F21800C4F20200016834
:1018900041F400610160006800F40060019001986B
:1018A00002B0704741F21800C4F20200416841F0F2
:1018B00001014160406800F001000090009802B012
:1018C0007047000090F83D1001291CBF01207047AF
:1018D000022180F83D10006840F2FF71C4F200015F
:1018E000884209DCB0F1804F12D040F20041C4F2CE
:1018F000000188420CD012E042F60041C4F201011E
:10190000884205D040F60001C4F20001884206D1A9
:10191000816801F00701062904BF002070470168B3
:1019200041F00101016000207047000090F83D1077
:1019300001291CBF01207047022180F83D1000687A
:1019400040F2FF72C168C4F20002904241F001010E
:10195000C16009DCB0F1804F12D040F20041C4F206
:10196000000188420CD012E042F60041C4F20101AD
:10197000884205D040F60001C4F20001884206D139
:10198000816801F00701062904BF00207047016843
:1019900041F00101016000207047000080B590F81F
:1019A0003C20012A4FF0020200F0C28080F83D2066
:1019B000D0F800C04FF67772DCF8083023EA020254
:1019C000CCF808200B684F2B28DC1F2B44DD202B84
:1019D00045D0302B43D0402B40F0AC80D1F804E010
:1019E000C968DCF82030DCF8202022F00102CCF8B5
:1019F0002020DCF8182022F0F00242EA011123F046
:101A00000A0242EA0E02CCF81810CCF82020DCF8CA
:101A1000081041F0470121F0300180E06F2B27DDF5
:101A2000B3F5005F48D0B3F5805F7AD0702B40F0FB
:101A30008180D1E901E3C968DCF8082043EA0E039C
:101A400022F47F4243EA01211143CCF80810DCF86C
:101A5000081041F0770162E00BB1102B6AD1DCF87D
:101A6000081021F07001194341F0070157E000BF51
:101A7000502B35D0602B5DD1D1F804E0C968DCF87B
:101A80002030DCF8202022F01002CCF82020DCF8F6
:101A9000182022F4704242EA013123F0A00242EA07
:101AA0000E12CCF81810CCF82020DCF8081041F009
:101AB000670121F0100132E0D1E901E3C968DCF8E7
:101AC000082043EA0E0322F47F4243EA0121114336
:101AD000CCF80810DCF8081041F480411FE000BF8A
:101AE000D1F804E0C968DCF82030DCF8202022F0CE
:101AF0000102CCF82020DCF8182022F0F00242EAA3
:101B0000011123F00A0242EA0E02CCF81810CCF8B8
:101B10002020DCF8081041F0570121F02001CCF81A
:101B200008100022012180F83D10002180F83C10AF
:101B3000104680BD0122F5E7FEE700002DE9F047E1
:101B400082B0044600680E460168DDF828A041F422
:101B5000806101600168DDF82C9041F480711D46C0
:101B60001746016020464FF0011100225346CDF880
:101B7000009000F033F958B120680068C00544BFF8
:101B80004FF400702064032002B0BDE8F08700BF6E
:101B900040F202082068C0F2010806F0FE06066165
:101BA0002046414652464B4600F002FA20B1012041
:101BB00002B0BDE8F08700BF0020019020684A46CF
:101BC000416901918069514601900198204600F0D9
:101BD000A7FA98B9012D08D02068390A016120467A
:101BE00051464A4600F09CFA40B92068F9B20161BA
:101BF000204651464A4600F093FA58B1206C04281A
:101C0000D5D12068016841F400710160012002B063
:101C1000BDE8F087206800220168534641F48071D6
:101C2000016020464FF00111CDF8009000F0D6F889
:101C30000028A1D1206846F00101016120464146FB
:101C400052464B4600F0B4F9002818BF012002B0FC
:101C5000BDE8F0872DE9F04383B0044600680D46E7
:101C600001680A9F0B9E41F480719946904601607D
:101C700020464FF0011100223B46009600F0AEF8DE
:101C800050B120680068C00544BF4FF40070206464
:101C9000032003B0BDE8F083206805F0FE01016178
:101CA0000221C0F2010120463A46334600F080F995
:101CB00020B1012003B0BDE8F08300BF00200290F6
:101CC0002068324641690291806939460290029843
:101CD000204600F025FA58B1206C0428E9D120688C
:101CE000016841F400710160012003B0BDE8F08398
:101CF000B9F1010F0AD020684FEA1821016120468E
:101D00003946324600F00CFA0028E5D120685FFA27
:101D100088F10161002003B0BDE8F08370B503686D
:101D2000044653F8140F400711D40E46481C29D01E
:101D300086BB00BF1868400527D4FEF707FE23685E
:101D400053F8140F400739D518684007F2D5002022
:101D500070BD00BF18684007F9D41868400514D456
:101D600018684007F3D4186840050ED41868400777
:101D7000EDD41868400508D4186840074FF00000FB
:101D800048BF70BD18684005E4D56FF480601860E6
:101D9000042014E0154603E053F8140F4007D6D48E
:101DA00018684005F1D4FEF7D1FD401B2368B0420E
:101DB000F2D958694007EFD4202000E0202000210C
:101DC0002022216384F83D2084F83E10226C1043C9
:101DD0002064012084F83C1070BD00002DE9F04122
:101DE000054600681E46144601F47F0201338FB297
:101DF00042D0DDF81880B2F5803F40F0878040691E
:101E00003840C01BB0FA80F04009A04240F0C880C2
:101E10004EB924E040693840C01BB0FA80F0400958
:101E2000A04240F0BD80FEF791FDA0EB08012868BC
:101E3000B142EFD941693940C91BB1FA81F1490971
:101E4000A142E7D19BE000BF40693840C01BB0FA17
:101E500080F04009A0424FF0000040F0A680FEF75D
:101E600075FD286841693940C91BB1FA81F14909FA
:101E7000A142E9D183E000BFB2F5803F24D100BF89
:101E800041693940C91BB1FA81F14909A14240F0C9
:101E9000878041693940C91BB1FA81F14909A142E2
:101EA00040F07E8041693940C91BB1FA81F149098E
:101EB000A14275D141693940C91BB1FA81F1490983
:101EC000A142DDD06CE000BF81693940C91BB1FA85
:101ED00081F14909A14263D181693940C91BB1FA35
:101EE00081F14909A1425BD181693940C91BB1FA2D
:101EF00081F14909A14253D181693940C91BB1FA25
:101F000081F14909A142DFD04AE000BF8069384031
:101F1000C01BB0FA80F04009A04241D146B923E08D
:101F200080693840C01BB0FA80F04009A0423BD124
:101F3000FEF70CFDA0EB08012868B142F0D98169D9
:101F40003940C91BB1FA81F14909A142E8D116E033
:101F500080693840C01BB0FA80F04009A0424FF0C1
:101F6000000018BFBDE8F081FEF7F0FC2868816929
:101F70003940C91BB1FA81F14909A142E8D10020D9
:101F80002021286385F83D1085F83E00296C41F03A
:101F90002001296485F83C000120BDE8F08100BFE4
:101FA0000020BDE8F08100BF0020BDE8F081000006
:101FB000F0B581B0044600681D4643698FB203EA5C
:101FC0000701B94202D1002001B0F0BD41691646B7
:101FD000013201F4806125D0002940D1CEB100BF8B
:101FE000FEF7B4FC411B2068B14203D94169394076
:101FF000B9424BD141693940B942E4D04169490500
:10200000EED52CE041693940B942DCD0416949053F
:1020100025D4FEF79BFC206841693940B942F1D0D4
:10202000202024E0D9B941693940B942CBD0416977
:10203000490514D441693940B942C4D041694905C0
:102040000DD441693940B942BDD04169490506D432
:1020500041693940B942B6D041694905E3D50168C3
:1020600041F4007101606FF480614161042000213E
:102070002022216384F83D2084F83E10226C104316
:10208000206484F83C10012001B0F0BD2020EEE770
:1020900070B504460068154650F8143F5A063DD402
:1020A0000E4629B926E000BF50F8141F490635D462
:1020B0000168C90621D4FEF749FC411B2068B142E2
:1020C000F2D941694906EFD400202021206384F829
:1020D0003D1084F83E00206C40F0200018E000BF66
:1020E000FEF734FC206850F8141F4906ECD501684F
:1020F000490613D40168C906F2D56FF010010160DA
:1021000000202021206384F83D1084F83E00206CDC
:102110002064002084F83C00012070BD002070BDC8
:1021200070B50368044653F8140F000611D40E4628
:10213000481C29D086BB00BF1868400527D4FEF78D
:1021400005FC236853F8140F000639D518680006FB
:10215000F2D5002070BD00BF18680006F9D41868D9
:10216000400514D418680006F3D4186840050ED44E
:1021700018680006EDD41868400508D418680006F1
:102180004FF0000048BF70BD18684005E4D56FF4FB
:1021900080601860042014E0154603E053F8140F23
:1021A0000006D6D418684005F1D4FEF7CFFB401BDB
:1021B0002368B042F2D958690006EFD4202000E02D
:1021C000202000212022216384F83D2084F83E1045
:1021D000226C10432064012084F83C1070BD000084
:1021E000B0B584B00D4602210DF10E026424CDE994
:1021F0000021D021472201230294FEF769FCBDF89B
:102200000E00C0BA01F000FC46F26663C4F240035F
:102210004FF0663201F062FA0246D5E910030C462F
:102220001946234601F09EF9C5E9100104B0B0BD7E
:10223000F0B585B0044601250DF113006426CDE903
:1022400000052046D021752201230296FEF740FCAE
:102250009DF81300682849D100208DF812000DF177
:1022600012072046D0216B220123CDE9007502968A
:10227000FEF7D4FD04208DF812002046D02119224B
:102280000123CDE900750296FEF7C8FD02208DF806
:1022900012002046D0211A220123CDE900750296B2
:1022A000FEF7BCFD08208DF812002046D0211C222C
:1022B0000123CDE900750296FEF7B0FD10208DF8E0
:1022C00012002046D0211B220123CDE90075029681
:1022D000FEF7A4FD2046D021382201238DF81250AC
:1022E000CDE900750296FEF799FD0025284605B058
:1022F000F0BD00002DE9F04F9FB00C460E210DF10E
:102300006E026427CDE90021D0213B2201230297F0
:10231000FEF7DEFBBDF86E00BDF8707001BA090C67
:10232000218039BABDF87260090C618031BABDF8FC
:102330007680090CA18098FA88F1BDF878B0090C74
:1023400021849BFA8BF1BDF87A90090C618499FA8B
:1023500089F1BDF874A0090CC0BAA18401F054FB46
:102360000025C3F6207500222B4601F0DDFBC4E9F1
:102370000201F8BA274601F047FB00222B4601F084
:10238000D3FBF4BAC7E90401204601F03DFB00226B
:102390002B4601F0C9FBC7E906019AFABAF001F031
:1023A000EFFF0021C4F2AA3101F028FF41F6B86125
:1023B000C4F2122101F096FEB86498FAB8F001F068
:1023C00023FB46F26665C4F240054FF066322B46A9
:1023D00001F084F9C7E90A019BFABBF001F014FB94
:1023E0004FF066322B4601F079F9C7E90C0199FAF2
:1023F000B9F001F009FB4FF066322B4601F06EF99F
:1024000040F24815C2F200052A88C7E90E0142F6DB
:1024100024406A80C4F2010000684FF6FF712880F2
:1024200080B25140904288BF5142084401F0ECFA1A
:1024300048F28043C4F22E13002201F04FF9B7F99D
:10244000002004FB04F302FB0232C5E9020110463E
:1024500001F0DAFA01F02EF80022002304460D46BE
:1024600001F0A2FEB0B9B7F9020001F0CDFA2246A0
:102470002B4601F033F900F03FFE4CF2F8124AF21D
:10248000DC53C1F66322C4F24C0301F04DFB1491FE
:1024900003E000BF0020149000201590B7F9000061
:1024A000B7F90440404201F0AFFA054620460E4617
:1024B00001F0AAFA02460B462846314600F02CFFEE
:1024C0004CF2F8124AF2DC53C1F66322C4F24C0318
:1024D00001F02AFB48F20003CCF2560300228246A8
:1024E0001A9101F076FE199748B9D7E9160148F21A
:1024F0000003C4F25603002201F064FE98B948F2CA
:1025000000031A99C4F256035046002201F068FEF7
:1025100090B9D7E9160148F20003CCF25603002225
:1025200001F057FE40B940F250001A99C2F2000083
:10253000C0E906A10FE100BF40F2481240F2500589
:10254000C2F20002C2F20005D7E90C01D2E902B6DC
:10255000D5E908231392169301F0D6FC0246D5E97B
:1025600006470B4658463146079601F0DDFA2246EB
:102570003B4600F0F7FFD5E91023D5E90C47109052
:102580000F9158463146119312941646069201F067
:10259000CBFA22463B4601F0B7FCD5E90E8942460C
:1025A0004B4601F0B1FC95E81C000994EC680894D6
:1025B00000F0D8FF079C0246CDF828A0D5F82CA043
:1025C000AD6A0B465846214601F0AEFA2A465346FC
:1025D00000F0C8FF3246119ECDE9171084F000418B
:1025E0005846334601F0A0FA129A3B4605468A4601
:1025F00000F0B8FFCDE90D102846514642464B4643
:1026000000F0B0FF81460C9088460B91DDE9081080
:102610005A46234601F088FA069A334600F0A2FF94
:10262000129040F25000C2F20000189C179FD0E9AF
:10263000042311912046394600F094FF05460E46CA
:10264000204639462A46334601F048F8824607902C
:102650008B46484641462A46334601F03FF8109CD7
:102660000F9F80460990894608910A981A99224638
:102670003B4601F049FC05460E46504659462A465F
:10268000334601F051FA22463B4600F06BFF40F220
:1026900050048246C2F200041A91C4E906A14046E1
:1026A00049462A46334601F03FFA139A169B00F03A
:1026B00059FF079F189EDDF85C80C4E90801384681
:1026C000594632464346254601F02EFA02460B464D
:1026D0003046414601F018FCC5E90A015946DDF8CB
:1026E0003890DDF834B03846199F4A465B4601F011
:1026F0001BFA02460B464846594601F005FC40F2DB
:102700005002099C089DC2F20002C2E90C01204659
:1027100029463246434601F007FA02460B46DDE9F8
:102720000B1001F0F1FB40F25002C2F20002C2E9CC
:102730000E01204629464A465B4601F0F5F902465D
:102740000B46DDE9111001F0DFFB40F25002C2F24E
:102750000002C2E910011A9848F20003C7E916A066
:1027600020F00041C4F256035046002201F038FD2B
:102770000246D7E90A0140F20808002A04BF81F0A6
:102780000041C7E90A01C2F20008D8E90823CDE9EF
:102790000F2301F0B9FB40F24817C2F2000707F11E
:1027A000080602460B4643CE7F69D8E906451296D5
:1027B000119706460F4601F0B7F922462B4600F066
:1027C000D1FED8E910B3D8E90C540C900B913046E7
:1027D00039465A460693CDE90D54B1463E4601F0BE
:1027E000A3F92A46234601F08FFBD8E90E7A3A4630
:1027F000534601F089FB98E82C000595D8F80C5059
:10280000049500F0AFFE0246D8E90A450B4648465B
:10281000314601F089F922462B4600F0A3FE069DC1
:10282000CDE9161086F0004148465A462B461896C8
:1028300013914C46CDF8689001F076F9DDE90D234F
:102840008046894600F08EFECDE909104046494693
:102850003A46534600F086FE824608908846079125
:10286000DDE904102246334601F05EF95A462B4654
:1028700000F078FE0E9040F20800C2F20000179EB1
:10288000169FD0E904230D913046394600F06AFEC8
:1028900004460D463046394622462B4600F01EFFC0
:1028A000834689465046414622462B4600F016FF95
:1028B000DDF830A00B9C074605900E460691DDE939
:1028C00014105246234601F01FFB05468846584621
:1028D00049462A46434601F027F95246234600F06E
:1028E00041FE40F20804C2F20004CDE91401C4E93B
:1028F0000601384631462A46434601F015F9DDE91E
:102900000F2300F02FFEA046C8E908015C46584698
:10291000DDF85CA0DDF858B0494652465B4601F050
:1029200003F902460B465046594601F0EDFA0A9E5D
:10293000099FC8E90A012046494632463B4601F054
:10294000F3F802460B463046394601F0DDFA059CA5
:10295000069DC8E90C012046294652465B4601F017
:10296000E3F802460B46DDE9071001F0CDFAC8E9AD
:102970000E012046294632463B4601F0D5F8024674
:102980000B46DDE90D1001F0BFFAC8E910011998F6
:10299000DDE91421D0E90E7A1A9C189DC0E91421B2
:1029A0000646204629463A46534601F0BDF80246FF
:1029B0000B4600F0D7FDDDE9113200F0D3FD40F207
:1029C0004819D6E91023C2F20009C9E904013846C2
:1029D000514601F099FA02460B4620462946A84680
:1029E00001F0A2F8D9E9064502460B4600F0BAFD0F
:1029F00022462B4600F0B6FD48F20003C4F27603EF
:102A0000002204460D4601F0DDFB48F200030646B5
:102A1000CCF2760320462946002201F0E8FB00288C
:102A200018BF0024002E18BF002421460D9440F248
:102A30009804002818BF0025C2F20004002E18BF19
:102A40000025D4E90823C9E90615384651460A95F8
:102A50001292149301F058FADDF868900246D4E916
:102A600006670B4648464146C24601F05DF83246CD
:102A70003B4600F077FDD4E91023D4E90C681190AF
:102A8000109148465146CDE90B2317964D4601F06B
:102A90004BF83246434601F037FAD4E90E9B4A46DA
:102AA0005B4601F031FA94E88C000997E7680897D3
:102AB00000F058FD0246D4E90A670B462846514605
:102AC0002C4601F031F832463B4600F04BFDCDE993
:102AD00015012846DDF82CA00C9D139952462B4673
:102AE00001F022F8179A434606460F4600F03AFDD9
:102AF00013900F91304639464A465B4600F032FD4E
:102B000081460E901791DDE90810189B224601F0CE
:102B10000BF852462B4600F025FD1A9040F2980023
:102B2000C2F20000159D169CD0E904231891284696
:102B3000214600F017FD06460F462846214632463C
:102B40003B4600F0CBFD8A461799834648463246FD
:102B50003B4600F0C3FD119E109F80460C908946B5
:102B60000D980A9932463B4601F0CEF904460D46CF
:102B70005846514622462B4600F0D6FF32463B4689
:102B800000F0F0FC40F29806C2F20006CDE9100118
:102B9000C6E906014046494622462B464F4600F00C
:102BA000C3FF129A149B00F0DDFCB046C8E908018F
:102BB0005C465846159EDDF858B0514632465B4695
:102BC00000F0B2FF02460B463046594601F09CF930
:102BD000C8E90A012046139D0F9C51462A46234608
:102BE00000F0A2FF02460B462846214601F08CF970
:102BF000DDF83090C8E90C014846394632465B465C
:102C000000F092FF02460B460E98179901F07CF9EE
:102C1000C8E90E01484639462A46234600F084FF9B
:102C200002460B461A98189901F06EF9C8E910018E
:102C30001998DDE91021C0E918211FB0BDE8F08F17
:102C4000FEE70000FEE7000070470000704700004C
:102C5000FEF7C2B970470000FEE7000070B593426E
:102C600056D3A3EB020E0EF1010515F003040DD0AF
:102C70005FFA8EF5ED0020FA05F5AEF1010C012C9E
:102C800002F101068D5403D1324618E0F44616E0F5
:102C90005FFA8CF5ED0020FA05F5AEF1020C022C7E
:102CA00002F102048D5501D1224608E05FFA8CF64C
:102CB000F60020FA06F6AEF1030C03320E55BEF113
:102CC000030F38BF70BD9B1A11440133043900BF94
:102CD0005FFA8CF2D20020FA02F201F8042FACF174
:102CE0000102D2B2D20020FA02F24A70ACF1020222
:102CF000D2B2D20020FA02F28A70ACF10302D2B250
:102D0000D20020FA02F2043BACF1040CCA70DFD10D
:102D100070BD000090B0FEF76DF900240120CDE9F0
:102D20000B44CDE9094406900A904FF4E0104FF4AB
:102D3000803102250F9006A8CDE90714CDE90D5189
:102D4000FEF7F2FA20B1EFF3108072B6FEE700BF93
:102D50000F20CDE900054FF4806003904FF4A06090
:102D60000490684602210294FEF7EAF920B1EFF3DD
:102D7000108072B6FEE700BF41F21800C4F20200F4
:102D8000016841F2000441F0100101600168C4F2E1
:102D9000010401F01001069106990168002241F03A
:102DA0002001016001684FF4005501F020010691F7
:102DB00006990168002741F004010160016801F0F3
:102DC000040106910699016841F00801016000685C
:102DD0004FF4005100F00800069006982046FDF7D9
:102DE000AFFD01200695CDE90707022006AD099049
:102DF00020462946FDF792FC202006900020C1F2D3
:102E00001100CDE90707A4F500602946FDF786FC0F
:102E1000172000210022FEF757F91720FEF744F98A
:102E200040F24820A4F53C41C2F2000048F2A06202
:102E30004FF48043C0F2010280E88600C0E90373CA
:102E4000C0E90577C0E90777FDF786FD20B1EFF30C
:102E5000108072B6FEE700BF40F26816C2F20006AC
:102E6000A4F52C41304640F8501F12214FF4803217
:102E7000C0E90117C0E90372C0E905778783FDF750
:102E8000D7FA28B1EFF3108072B600BFFEE700BF9B
:102E9000012000270E900A21CDE90C700D2006F1CB
:102EA00050050B910F9006A92846CDE90677CDE98C
:102EB00008770A97FDF746FA40F29C2004F5E051A6
:102EC000C2F200004FF6FF730997CDE90777CDE90D
:102ED0000077472280E88600C0E90337C0E905771C
:102EE000FEF750FC20B1EFF3108072B6FEE700BF92
:102EF0004FF48050069040F29C20C2F2000006A9D8
:102F0000FEF74CFD20B1EFF3108072B6FEE700BF74
:102F100040F29C20C2F200006946FEF7F5FB28B1A2
:102F2000EFF3108072B600BFFEE700BF40F2E4206E
:102F30000021C2F200004FF0804240F2374340F2DD
:102F4000E7370991CDE90711CDE90011C0E9002368
:102F5000C0E9021701618161FEF714FC20B1EFF3B3
:102F6000108072B6FEE700BF4FF48050069040F22A
:102F7000E420C2F2000006A9FEF710FD20B1EFF335
:102F8000108072B6FEE700BF40F2E420C2F20000FB
:102F90006946FEF7B9FB28B1EFF3108072B600BFA7
:102FA000FEE700BF40F29C20C2F20000FEF78AFC60
:102FB0002846FDF7F5FA28460221FDF759F90820C1
:102FC0000021C6E90A104FF47A70C6E9081186F8A4
:102FD0003010FDF713FB40F24820C2F20000FFF76B
:102FE00027F988B140F24825C2F2000520464FF487
:102FF0000051FDF79DFC4FF47A70FDF7FFFA28466B
:10300000FFF716F90028F1D1FEE7490050EAC12088
:1030100018BF04204A0D18BF40F0010040F2FF72B3
:10302000B2EB515F08BF40F00200012808BF052045
:1030300070472DE9F0414F1E00EBC7010446D1E96E
:10304000000115461E4637F006020DD02A463346CB
:1030500000F06AFD7F1E04EBC703D3E9002300F0F4
:1030600081FA37F00602F1D1022F25D0042F13D0B8
:10307000062F18BFBDE8F0812A46334600F054FD04
:10308000D4E90A2300F06EFA2A46334600F04CFDDC
:10309000D4E9082300F066FA2A46334600F044FDDE
:1030A000D4E9062300F05EFA2A46334600F03CFDE0
:1030B000D4E9042300F056FA2A46334600F034FDE2
:1030C000D4E9022300F04EFA2A46334600F02CFDE4
:1030D000D4E90023BDE8F04100F044BA012201F038
:1030E0005ABA00F03FBA0000024A0020110701F06E
:1030F00052BA000001FDFFFF2DE9F84F04460D46CE
:1031000021F0004000917349814211DC72498842EC
:1031100001DC06D12CB120462946BDE8F84FFFF767
:10312000DDBF6E48002DCCBF6D496E49BDE8F88FFC
:103130006D49814211DD6D498142D8BF4FF0FF36A4
:103140006DDD20462946FFF760FF042808BFFFF722
:10315000CBFF20462946BDE8F88F6549654F25F02D
:103160000045814233DD6449814219DD0026324643
:103170004FF080432046294600F0F4F980468A4605
:1031800001222046294601F006FA00223B4600F0C3
:10319000BBFE4246534600F0A1FA04460D463EE00F
:1031A00001260022BA463B462046294600F0DAF9BD
:1031B00080460F46002253462046294600F0A4FED2
:1031C00042463B4600F08AFA04460D4627E04B494A
:1031D00081421BDDDFF828A102260022534620464B
:1031E000294600F0A1FC00223B4600F0BBF98046D6
:1031F0000F46002253462046294600F085FE4246EF
:103200003B4600F06BFA04460D4608E003262246D2
:103210002B4600203B4900F061FA04460D46224649
:103220002B461046194600F07FFC8B46824602462C
:103230000B4600F079FC07460246334888460B46A9
:1032400006217844FFF7F5FE52465B4600F06CFC21
:1032500082462E488B463A46434605217844FFF77E
:10326000E8FE3A46434600F05FFC02460B46002E5D
:10327000504659460CDA00F075F922462B4600F00C
:1032800053FC01B022462B46BDE8F04F00F04ABD8A
:1032900000F068F922462B4600F046FC1C4A7A44AE
:1032A00002EBC603D3E9002300F02EFE22462B4694
:1032B00000F02AFE174A7A4402EBC603D3E9002342
:1032C00000F030FD009A002AB8BF81F00041BDE84F
:1032D000F88F0000000010440000F07F182D4454C7
:1032E000FB21F93FFB21F9BF0000DC3F0000203E3D
:1032F0000000F33F0000F03F0000E63F0080034085
:103300000000F83F0000F0BF4A140000081400005D
:10331000A61300006E1300002DE9F04D9446CCF189
:10332000000423F000464CEA0404594F46EAD474E2
:103330009A46884621F00042BC4206D8454240EAFF
:10334000050442EAD474BC4204D9BDE8F04D62469B
:10335000FFF7C7BEAAF14055A5F17F6555EA0C04F9
:103360000BD0022404EAAA744A4DDFF82CE144EAA7
:10337000D87452EA000B04D00CE0BDE8F04DFFF722
:10338000BBBE002C14BF012CBDE8F08D022C30D048
:10339000032C32D056EA0C0B0AD0BE4220D1BA42DE
:1033A00009D126F0804622F080423346114617E0CC
:1033B00000291ADB25E0DFF8E4B0FB44002C04BF51
:1033C000DBE90001BDE8F08D012C02BFDBE9000163
:1033D00081F00041BDE8F08D022C0AD0032C0CD006
:1033E000BA4212D1B8F1000F0BDA2A482C49BDE8D5
:1033F000F08D28462B49BDE8F08D28467146BDE882
:10340000F08D24482849BDE8F08D921B12153C2A06
:10341000C4BF204F244E10DCBAF1000FBEBF12F122
:103420003C0F00273E4608DB624600F057F921F0CA
:103430000041FFF761FE07460E4694B1012C08BF1C
:1034400086F000460DD0194A194B022C38463146F9
:1034500015D000F059FD2A46BDE8F04D114B00F0A3
:1034600053BD002213463846314600F091FA04BF9E
:103470000220FCF7B1FE38463146BDE8F08D00F081
:1034800043FD2A46BDE8F04D064B00F04BBC000062
:103490000000F07F182D4454FB2109C002130000E6
:1034A000FB21F9BFFB210940FB21F93F075C1433E5
:1034B00026A6A13C2DE9F04106460F4600F03EFC51
:1034C000041E0D4618BF0120284320F00040C0F123
:1034D0007F6000F1E040C00F0ED0301C18BF01200B
:1034E000384320F00040C0F17F6000F1E040C00FA1
:1034F00004BF0120FCF770FE20462946BDE8F0819C
:1035000021F0004201F00043A2F16052B2F5801FA9
:1035100028BFD2F17F6C0BD95FEA001C43EAC202DC
:1035200042EB507018BF704728BF20F00100704771
:10353000B2F5801FBCBF184670474FEA410C1CF51E
:10354000001F02D2084600F079BF70B500F096FB6C
:1035500000000089FFF7F6BF4FF00040A0F58000A3
:103560007047000010B591EA030F48BF83F0004395
:1035700000F1D284841A71EB030C05D2121943EBCB
:103580000C03001B61EB0C014FEA1154A4EB135C1C
:10359000DFF81CE11EEA430F18BF9EEA445F00F00B
:1035A000748021EA045123EA0E0343F48013DCF112
:1035B000200E32D322FA0CFE10EB0E0023FA0CFE82
:1035C00041EB0E01CCF1200E03FA0EFE10EB0E00C3
:1035D000CCF1200E51F10001B1F5801F32D201EB88
:1035E000045112FA0EF2BDE8104058BF7047401C5B
:1035F00038BF5FEA420218BF7047002814BF20F0AE
:10360000010041F100014FEA410313F5001F38BFEB
:103610007047A1F1C04100F07FBB012A43EB0302D8
:10362000ACF1200CDCF11F0E32BF4FF0000E23FA7C
:103630000CF310EB030041EB0451B4EB115FD0D05D
:10364000A1EB045101F58011490801EB04515FEA37
:1036500030000ED350F1000038BF12FA0EFE08D130
:10366000BDE81040C9E7401C38BF5FEA4202CAD13A
:10367000C3E7BDE810404FEA410313F5001F38BF10
:103680007047A1F1C04100F047BB9EEA445F08D0FB
:1036900011EA5E0FBDE8104004BF01F000410020B8
:1036A0007047BDE8104070B500F0E8FA64FBBE3E1C
:1036B0000000E0FF02494FF0000000F03ABF00BFF9
:1036C0000000F87F491058BFC1F140415B1058BF5E
:1036D000C3F140438B42EFF3008070472DE9C041B6
:1036E00030B4DFF8A4C23CEA111418BF3CEA13144A
:1036F00000F0ED801CEA111481EA030544EAD57458
:1037000018BF1CEA131500F0C880A4EB050404F1EF
:103710007F7404F500344FF0004545EAC12145EAC5
:10372000C32341EA505143EA52534FEAC0204FEAC3
:10373000C222994208BF904200F09D804FEA136573
:103740000FF24416765D4FEA134506FB05F7C7F105
:10375000807706FB07F74FEAD737A7FB0368764267
:10376000A7FB06CEC8F5803838BFA8F1010807FBD3
:1037700008E6A6FB028C4FF0000EE6FB03CEDCF160
:10378000000CCEF1004E38BFAEF1010EA6FB0C5876
:103790004FF00007E6FB0E87A1FB08C6A0FB07CE93
:1037A00016EB0E064FF0000545F10005E1FB07653D
:1037B00015F1E04E7EBFA4F580345FEA46066D4108
:1037C00016F1800745F100054FEA172747EA05671C
:1037D0004FEA15254FEA0666A6F1DE46B6F1805F90
:1037E00020D9384605EBC47124F0010C01EB0C1113
:1037F000BCF1FE6F02D8F0BCBDE8008124425CBF82
:1038000001F5801E9EEAC47F02D4F0BCBDE80081B1
:10381000244200F13980A1F1C041F0BCBDE8004173
:1038200000F07ABA4FEAD02040EA41504FEAD12165
:103830004FEAD22242EA43524FEAD323A7FB028641
:1038400007FB036605FB02661EEA0E0F58BFA6EBD8
:103850000056B6EB00564FEA520E4EEAC37E18EB06
:103860000E0E56EB530EBCD518EB02085E417F1CC2
:1038700055F10005B5E74FF480154FF000074FF004
:1038800000064FF00008ACE701F1C04101F0004133
:103890004FF00000F0BCBDE800810CEA131511EAFE
:1038A0000C1F00D00CE013EA0C1F00F026804FF034
:1038B000000081EA030101F00041F0BCBDE8008195
:1038C000F0BCBDE8004181EA030100F025BAF0BC7C
:1038D000BDE8004170B500F0D1F900BF097EFC3EA3
:1038E00000F007B84FF0000081EA030101F0004149
:1038F000704781EA030100F00FBAF0BCBDE8004157
:1039000022494FF000007047FFFDFBF9F7F5F4F294
:10391000F0EEEDEBE9E8E6E4E3E1E0DEDDDBDAD86A
:10392000D7D5D4D3D1D0CFCDCCCBCAC8C7C6C5C4C8
:10393000C2C1C0BFBEBDBCBBBAB9B8B7B6B5B4B3DF
:10394000B2B1B0AFAEADACABAAA9A8A8A7A6A5A4CA
:10395000A3A3A2A1A09F9F9E9D9C9C9B9A9999988E
:103960009797969595949393929191908F8F8E8E31
:103970008D8C8C8B8B8A89898888878786858584BE
:1039800084838382828181800000FF070000F87FAA
:1039900051EA030C17D41CF5801F58BFBCF5801FDB
:1039A00000F10680994218BF704708BF90427047E7
:1039B00007D711F5801F58BF13F5801F19D49942FE
:1039C0007047894270471CF5801F08D5BCF5801FE1
:1039D000F7D58B4218BF704708BF824270474FF43B
:1039E000001C1CEB410F38BF1CEB430F01D28B4274
:1039F000704770B500F042F9922449004FF0005131
:103A00004FF08053FFF75EBE10F0004248BF4042C7
:103A1000B0FA80F310FA03F10AD0C3F11D0303F5E5
:103A2000806302EB03524FEA415002EBD121704711
:103A30004FF000007047000051EA030C17D41CF54A
:103A4000801F58BFBCF5801F00F10680994218BF47
:103A5000704708BF9042704707D711F5801F58BFC5
:103A600013F5801F19D499427047894270471CF59D
:103A7000801F08D5BCF5801FF7D58B4218BF704753
:103A800008BF824270474FF4001C1CEB410F38BF47
:103A90001CEB430F01D28B42704770B500F0EEF87B
:103AA000922449004FF080514FF00053FFF70ABEB7
:103AB00051EA030C17D41CF5801F58BFBCF5801FBA
:103AC00000F10680994218BF704708BF90427047C6
:103AD00007D711F5801F58BF13F5801F19D49942DD
:103AE0007047894270471CF5801F08D5BCF5801FC0
:103AF000F7D58B4218BF704708BF824270474FF41A
:103B0000001C1CEB410F38BF1CEB430F01D28B4252
:103B1000704770B500F0B2F8922449004FF00051A0
:103B20004FF08053FFF7CEBD70B5DFF848C11CEAF7
:103B3000111E1EBF1CEA13159EEA0C0F95EA0C0F0E
:103B400000F06F8081EA03044EEAD47EAE4421EA9D
:103B50004C1123EA4C1341F4801143F48013AEF16D
:103B60007F7EA1FB024CA0FB0365361955EB0C05CB
:103B7000A1FB034C4CF10003A0FB021C16EB0C064E
:103B8000654153F10003094218BF46F0010613F4E2
:103B9000007F0BD14FEA03314FEA053041EA15515E
:103BA00040EA165034036FF003020AE04FEAC321E3
:103BB0004FEAC52041EA555140EA5650F4026FF0F1
:103BC000020202EB2E4201EB025585EACE710AD0C9
:103BD0005FEA440C18BF24F0004450F1000041F1AA
:103BE000000120EAD47040F2FE7C624500D270BD34
:103BF000A84214BF4FF080444FF04044002E08BF4D
:103C00000024BEF1806FA8BFA1F1C041BDE87040A3
:103C100080F2828001F1C04101F000414FF00000CC
:103C200070470CEA13159EEA0C0F18BF95EA0C0FAB
:103C300006D081EA030E4FF000000EF0004170BD87
:103C400000F01CF88900013E00F007B800F009B848
:103C50004FEA430C5FEA5C5C08D081EA030100F0A4
:103C60005BB84FEA410C5FEA5C5CF6D102494FF069
:103C7000000070470000FF070000F87F0EF1020E01
:103C80002EF0030E5EF8046B364205D4012A43EB96
:103C9000030515F5001F12D8012841EB010C1CF596
:103CA000001F0CD80ED14FEAD17C0CEB4C0C0CF160
:103CB000020C15F5001F08BF4CEBD37C04E04FF05D
:103CC000080C01E04FEAD37C0CEB4C0526FA05F614
:103CD00006F00706B6F1040C06D20EEB860CBDE822
:103CE00070404CF0010C6047DFE80CF0090B020259
:103CF0004FF00041A1F500214FF0000070BD1946C2
:103D00001046012851EB010418BFD4F5001484BFFC
:103D1000002001F0004170BD0808A0F500114FEA35
:103D20003101704710B591EA030F81F000413FF572
:103D300021AC83F0004300F0EFB800002DE9F04122
:103D400001F5801CBCF5001FC0F2C3804FEA115C76
:103D500021EA0C5141F480110CF1FD0C5FEA5C0C7E
:103D60000CF5C07C01D340004941890241EA9051E1
:103D700087023BA48E0EA45D0A0C04FB04F602FB32
:103D800006F6C6F14046A4FB0662F60D46EA422658
:103D900006FB06F4A4FB01235242C3F1404338BFA3
:103DA0005B1EA6FB02420024E6FB0324D20B42EA80
:103DB0004446A6FB0623A1FB02E2A3FB07E4A418EA
:103DC0004FF0000252F10002E3FB01426442C2F1F3
:103DD000404E38BFAEF1010EA6FB04234FF00002A7
:103DE000E6FB0E32A2FB0346B6194FF0000454F175
:103DF0000004E2FB0264A1FB06E6A4FB07E816EB65
:103E000008064FF0000858F10008E4FB016876420C
:103E1000C8F1405838BFA8F10108A2FB06E4A3FB93
:103E200008E52D194FF0000454F10004E2FB08549A
:103E3000A1FB05E6A7FB04E818EB06084FF0000617
:103E400056F10006E1FB048618F1200556F1000644
:103E5000A80940EA8660B109A8F11B0808F03F08EC
:103E6000B8F10A0F1CD901EB0C51BDE8F08100BF7D
:103E7000FCF5EEE8E2DDD8D3CFCBC7C3C0BDB9B601
:103E8000B4B1AEACA9A7A5A3A19F9D9B9A98969506
:103E90009392908F8D8C8B8988878685848382818D
:103EA000A0FB006800FB01F208EB4208B8EB872892
:103EB00007D5341858EB0104D5D5401C51F1000149
:103EC000D1E7341A78EB0104CDD4401E71F1000122
:103ED000C9E75FEA4C0C5FEA9C5C0DD105D301F0A9
:103EE00000414FF00000BDE8F081BDE8F04170B541
:103EF000FFF7C4FE6DDBFFBEBDE8F04101494FF0A6
:103F0000000070470000F87F10B591EA030F48BF2A
:103F100083F000433FF52EAB841A71EB030C07D2FC
:103F20008CF0004C121943EB0C03001B61EB0C01ED
:103F30004FEA1154A4EB135CDFF8A4E11EEA430F2F
:103F400018BF9EEA445F00F0B48021EA045123EADE
:103F50006E035242C3EB6E0338BF5B1EDCF1200ED2
:103F600025D322FA0CFE10EB0E0043FA0CFE41EBB7
:103F70000E01CCF1200E03FA0EFE10EB0E00CCF178
:103F8000200E51F1000129D401EB045112FA0EF276
:103F9000BDE8104058BF7047401C1CBFB2F1004F35
:103FA000704700280CBF491C20F00100704712EB3D
:103FB000020E43EB030218BF4FF0010E4EEA42021D
:103FC000ACF1200CDCF11E0E56D943FA0CFE10EBBE
:103FD0000E00CCF11E0E51F1FF31D5D50EF1010EC0
:103FE00012FA0EFE404141EB010101EB445C5FEA35
:103FF0005C5C10D901EB045110EBDE7038BFBEF1F0
:10400000004FBDE8104018BF704700280CBF491C86
:1040100020F00100704734D24FEAD42C24F400641D
:1040200011F500111BD0B1FA81F20B3AA41AA41EAB
:10403000D2F12003914030FA03F31943904001EB91
:10404000CC7101EB0451002CBDE81040A8BF7047B3
:1040500001F1C04101F000414FF000007047B0FA9B
:1040600080F310FA03F102D1BDE810407047E41A62
:10407000173C4805C90AE2E701EB0451BDE81040CE
:10408000704749104FEA300001EB0451BDE8104081
:1040900002E04FF0000170474A0008BF0042F8D02C
:1040A000B2F5001F28BF704701F000414FF000003B
:1040B00070479EEA445F07D011EA5E0FBDE81040EA
:1040C00004BF002100207047BDE8104070B5FFF725
:1040D000D5FD00BF40DFF63E104683F0004170473B
:1040E0000000E0FF90EA010F48BF81F0004100F1BD
:1040F000B281421A3CBF801A89184FEAD052A2EB13
:10410000D1534FF07F4C1CEA410F18BF9CEA026F5D
:1041100000F03B804FF0004C4CEA00204CEA0121BB
:1041200021FA03FC10EB0C0C1ED202F1FF325FEA05
:104130001C2040EBC25038BF70471CF07F0F4FEA85
:10414000400C18BFBCF17F4F38BF7047C3F120034C
:10415000994008BF20F00100BCF17F4F38BF704785
:10416000A0F1C04000F06AB94FEA3C00000A40EB01
:10417000C25028BF1CF0FF0F4FEA400CE6D018BF1A
:10418000BCF17F4F38BF7047EAE79CEA026F05D069
:1041900010EA5C0F08BF00F00040704710B500F057
:1041A00007F900BF64FBBE3E10B5FFF7F1FB0CBF83
:1041B0000120002010BD10B5FFF7EAFB14BF01205D
:1041C000002010BD10B5FFF737FC8CBF0120002088
:1041D00010BD10B5FFF730FC2CBF0120002010BD32
:1041E00010B5FFF765FC94BF0120002010BD10B58D
:1041F000FFF75EFC34BF0120002010BD4FF47F0CA0
:104200001CEAD0121EBF1CEAD11392EA0C0F93EAEB
:104210000C0F00F0858090EA010F48BF42F48072D5
:1042200040F4000C41F400002CF07F4120F07F406E
:1042300000B5A2EB030281420FF2081CACEB504E1A
:104240009EF800E0C0F100004FEA4E0E00FB0EFCAD
:1042500038BF49004FEA2C1C0CFB0EF34FEACE1E70
:104260000EEB635E4FEA112C0EFB0CFC4FEAC121F2
:104270004FEA1C5300FB031102F5FA024FEA112C1E
:104280000EFB0CFC4FEA01314FEADC4C00FB0C1139
:1042900042EB2242C14228BF09184CEB03335DF8C0
:1042A00004EB10EB410143EBC250B2F57C0F38BF79
:1042B000704729D512F0F00F1CBF00F1C04000F08C
:1042C00000407047008182838485868788898B8C33
:1042D0008D8E8F919293959697999A9C9D9FA0A26F
:1042E000A3A5A7A8AAACAEB0B2B3B5B7B9BCBEC0BF
:1042F000C2C5C7C9CCCED1D4D7D9DCDFE2E6E9EC60
:10430000F0F3F7FAFE0000004FEA400C0CF1807C5D
:10431000BCF17E4F28BF7047B0F1C04000F08EB8AE
:104320000CEAD11390EA010F48BF42F48072624553
:1043300038BF634507D213F47F0F16D080EA01001F
:1043400000F00040704710B500F032F8097EFC3EE6
:1043500000F005B880EA010000F00040704780EAF4
:10436000010000F0004000F069B812F47F0F04BFB4
:104370000248704780EA010000F060B80000C07F8A
:1043800010F0004148BF4042B0FA80F310FA03F247
:10439000C3F19D030BD051EAC35101EB1220530628
:1043A00038BF704700F1010008BF20F001007047DE
:1043B0000EF1020E2EF0030E5EF8044B244204D4DC
:1043C0004FEA4102B2F17F4F11D84FEA4003B3F1F7
:1043D0007F4F0CD80ED14FEAD07C0CEB4C0C0CF17B
:1043E000020CB2F17F4F08BF4CEBD17C04E04FF0E0
:1043F000080C01E04FEAD17C0CEB4C0324FA03F4E7
:1044000004F00704B4F1040C06D20EEB840CBDE8F2
:1044100010404CF0010C6047DFE80CF00708020286
:104420004FF00040A0F5800010BD0846420018BFC4
:10443000D2F1807288BF00F0004010BDFF2141EA38
:10444000D050C0057047000090EA010F48BF81F0CE
:1044500000413FF54EAE421A04D882F00042A0EB74
:10446000020011444FEAD052A2EBD1534FF07F4CDF
:104470001CEA410F18BF9CEA026F4AD04FF0004C73
:104480004CEA00204CEA012121FA03FCB0EB0C0CB1
:104490000FD412F0FE0F36D05FEA4C001DD500128B
:1044A00040EBC25038BF70471CF03F0F18BF704739
:1044B0000BE05FEA1C20A2F1010240EBC25038BFC2
:1044C00070471CF07F0F18BF7047C3F1200399405D
:1044D00014BF401E20F0010070474FEA12238008ED
:1044E00008BF7047B0FA80FCA2EB0C02CCF1280C9C
:1044F00060FA0CF093EA122F04BF00EBC250704731
:104500004FEAC3707047130A5FEADC1008BF7047B8
:10451000F6E79CEA026F04D010EA5C0F08BF0020A7
:10452000704710B5FFF744FF40DFF63E81F00040D2
:1045300070470CF00F03092B08BF082000F05980CA
:104540000A2B0BD0082B18BF704708BF1CF0400F78
:104550000AD04FF000004FF0000170471CF0400FF0
:1045600018BF4FF0004070471CF0100F08D000F04B
:104570007F4220F0704342EAD3014FEA4370704714
:1045800000F0604021F07F4242EA000201F07F40EB
:1045900040EA727070474FF0FF0C4CF4E06C1CEA7C
:1045A00011531CBF9CEA030C9445C2BFDA4201EBD5
:1045B00002517047002B0DD0BCF1000F0FD001F05D
:1045C0000041002AA4BF41F0E04141F07F614FF07B
:1045D0000000704701F000414FF00000704750EAC2
:1045E00001334FF09B0C18BF4CF0806C7FF462A835
:1045F00070471CF4801F11D01CF4E02F03D06FEA29
:10460000CC31490070474FF04050EFF3008222F068
:10461000704242EA000282F3008870474FF00000C7
:1046200070470000000000004FBB610567ACDD3F34
:10463000182D4454FB21E93F9BF681D20B73EF3FC9
:10464000182D4454FB21F93FE2652F227F2B7A3C41
:10465000075C143326A6813CBDCBF07A8807703CFA
:10466000075C143326A6913CC4EB98999999C9BF6D
:10467000711623FEC671BCBF6D9A74AFF2B0B3BFA2
:104680009AFDDE522DDEADBF2F6C6A2C44B4A2BF62
:104690000D5555555555D53FFF8300922449C23FCE
:1046A0006E204CC5CD45B73F513DD0A0660DB13F02
:1046B000EB0D76244B7BA93F11DA22E33AAD903F14
:1046C00000000000000000000000000000000000EA
:1046D00001020304060708090000000001020304A8
:1046E000010202030405060708090A0B0C0D0E0F50
:1046F000101000001847000800000020E80000002B
:104700002801000800480008E800002048080000D0
:10471000440100080000000001000000100000003B
:10472000000000E04D62503F000000C07493683FFD
:10473000000000E051B89E3F0000000000000000B3
:104740000000000000000000000000000000000069
:104750000000000000000000000000000000000059
:104760000000000000000000000000E04D62503F2B
:10477000000000C07493683F000000E051B89E3F05
:104780000000000000000000000000000000000029
:104790000000000000000000000000000000000019
:1047A0000000000000000000000000000000000009
:1047B000000000E04D62503F000000C07493683F6D
:1047C000000000E051B89E3F000000000000000023
:1047D00000000000000000000000000000000000D9
:1047E00000000000000000000000000000000000C9
:1047F00000000000000000000024F40000000000A1
:04000005080000ED02
:00000001FF
