:020000040800F2
:1000000018080020A9010008512D0008492D0008FA
:100010004D2D0008950B0008353200080000000047
:10002000000000000000000000000000592D000842
:10003000E10C000800000000552D00085D2D0008AF
:10004000C3010008C3010008C3010008C301000880
:10005000C3010008C3010008C3010008C301000870
:10006000C3010008C3010008C3010008C301000860
:10007000C90C0008D50C0008C3010008C301000822
:10008000C3010008C3010008C3010008C301000840
:1000900029320008990B0008C3010008C3010008B9
:1000A000C3010008C3010008C3010008C301000820
:1000B000C3010008C3010008C3010008C301000810
:1000C000C3010008C3010008C3010008C301000800
:1000D000C3010008C3010008C30100081D32000865
:1000E000C3010008C3010008C301000800F002F8C2
:1000F00000F04AF80AA090E8000C82448344AAF178
:100100000107DA4501D100F03FF8AFF2090EBAE875
:100110000F0013F0010F18BFFB1A43F0010318473B
:10012000E040000000410000103A24BF78C878C1C8
:10013000FAD8520724BF30C830C144BF04680C60ED
:10014000704700000023002400250026103A28BF35
:1001500078C1FBD8520728BF30C148BF0B60704739
:10016000662903F0EA87642900F052800020704776
:100170001FB500F099FB04000020002103F050FFA0
:10018000E0601FBD10B510BD00F08EFC1146FFF7FA
:10019000EFFF03F0D9F900F0ACFC03B4FFF7F2FF76
:1001A00003BC00F0EFFC0000094880470948004705
:1001B000FEE7FEE7FEE7FEE7FEE7FEE7FEE7FEE717
:1001C000FEE7FEE704480549054A064B7047000074
:1001D000612D0008ED00000818020020180800201A
:1001E00018040020180400200FB41CB5074B06AA01
:1001F0007B4469460090059800F03DFB002069466D
:1002000000F04CFB1CBC5DF814FB0000A9060000CC
:100210002DE9F0410646002410687529314616A5DF
:1002200010D0AFF30080002802DA404213A507E0A7
:1002300031688A0701D512A502E0490704D511A546
:10024000012401E0AFF3008000210A2206F1240717
:1002500009E0B0FBF2FCB0FBF2F302FB1C00303013
:1002600078541846491C0028F3D123462A463046C4
:10027000BDE8F04100F092B8000000002D00000041
:100280002B000000200000002DE9F0474FF0000A8D
:1002900089460446C0F820A02046E1688847002827
:1002A00076D0252806D0D4E901219047206A401C49
:1002B0002062F1E7E168204600258847C4F81CA0C9
:1002C00006460027C4F818A02A2E09D0304603F0AD
:1002D0009FFE38B304EB8708303EC8F8186019E079
:1002E00059F8041B204604EB87029161E1688847B6
:1002F000012F064618D1E069002820DA25F02005F4
:100300001DE0D8F8180000EB800006EB4000303804
:10031000C8F818002046E1688847064603F078FED2
:100320000028EED1012F0AD02E2E08D12046E168F8
:1003300088477F1C0646022F45F02005C4DBA069D4
:10034000002803DA404245F00105A061E80701D02A
:1003500025F01005B6B1A6F14100192802D82036C3
:1003600045F400654A463146204625604D46FFF774
:10037000F7FE58B1012806D0ED1D25F0070000F169
:10038000080989E704E005F1040985E730468AE7B2
:10039000206ABDE8F0877047704770472DE9F04745
:1003A0000D4699469246044600F1240801688806E5
:1003B00004D5E06921F01001216000E00120A8428D
:1003C00001DD471B00E00027A1697A1902EB090053
:1003D000081AA0612078C00602D42046AFF300803E
:1003E000002608E0D4E901211AF806009047206AA7
:1003F000401C761C20624E45F4DB2078C0060AD5EE
:100400002046AFF3008006E0D4E901213020904778
:10041000206A401C2062381EA7F10107F4DC07E0C7
:10042000D4E9012118F805009047206A401C206299
:10043000281EA5F10105F3DC2046AFF300802078EB
:10044000000602D50220BDE8F0870120FBE72DE978
:10045000FF4F0C461E464FF0FF378BB0D2E900012C
:10046000DDF860800A908A46C1F30A5505B93D4619
:10047000002108464FF00000BAF1000F00F44000E0
:1004800005DA00EB80004FF4400101EA50004FEA2A
:100490009059B9F1010F00DDB9460A9850EA4A00B7
:1004A0000ED044F61050A5F2FF3545432F14B8F195
:1004B000000F1ED07542291E1EDDC9F100021CE08E
:1004C000B8F1010F4FF0000001D0302103E0F243FA
:1004D00005E02154401CB042FBDB304600220021E5
:1004E00021540B99C1F80880C1E900200FB0BDE884
:1004F000F08FBD1B6D1CDEE74A4600DA694206A894
:1005000000F05CFA06AB93E8070003AB83E8070052
:1005100050460A9903F0A0F98DE80700A0F50050B5
:100520001F3800900398002D0ADD42F21F014A4651
:100530000844002303A90390684603F009FC09E07E
:10054000A0F500504A461F38002303A903906846CF
:1005500003F013FC8DE807000004000C03D04FF0FB
:10056000FF30410800E01046B8F1000F03D0002230
:10057000009215461EE0751E05D400F099F9303240
:1005800062556D1EF9D5B3460122084302D0002200
:100590007F1C04E02078302801D100227F1E002A31
:1005A000099784D01DE0112D07DA00F081F930326F
:1005B00062556D1C50EA0102F5D1084302D0009843
:1005C000C8B10EE00021681E05E0235C625C635444
:1005D0002254401E491C8142F7DBAB46A81B401E3B
:1005E0000990002004F80B000B98099AC0F80880C5
:1005F000C0E9002B7AE711264FF0000857E72DE9F4
:10060000F04F88460446D21D22F0070191B0D1E98F
:100610000001CDE90A0103F0E7FC02460B98C00F88
:1006200001D02D2007E02068810701D52B2002E0B2
:10063000202101EAC000032A099001D0072A05DB26
:1006400003464146204600F079F90BE12078800608
:1006500001D5E06900E00620B8F1650F814606D0BB
:10066000B8F1660F18D0B8F1670F70D131E00020F3
:10067000B9F1110F009001DB112301E009F1010331
:100680000AAA01A90CA8FFF7E2FEDDE90C7000261A
:1006900009F10105834647E001204B4600904FF0E9
:1006A00000470AAA01A90CA8FFF7D1FEDDE90DB0A9
:1006B0000C995D46002610B909F101000D18B9EB3F
:1006C000050003D4C0F1FF3609F10105A5EB0900CF
:1006D0002BE0B9F1010F01DA4FF001090020B9F167
:1006E000110F0090484601DD112300E003460AAADD
:1006F00001A90CA8FFF7ABFEDDE90C704D46002602
:100700008346207800070AD4AB4500DA5D4601A88D
:10071000012D04DD411911F8011C302907D04F4586
:1007200002DA17F1040F04DA012082460FE06D1E91
:10073000EEE7002F02DCED1B3E4403E0781CA842EC
:1007400000DD7D1CB81B00F1010A4FF00047207846
:10075000000703D4AA4501DB4FF0FF3A0021B7F1AF
:10076000004F0DF143088DF8431024D002202B23B5
:10077000002F01DA7F422D230A21021EA0F1010081
:1007800000DC5FB197FBF1FC97FBF1F201FB1C7CF5
:1007900017460CF1300C08F801CDEEE7A8F1010086
:1007A00003702188090501D5452100E06521A0F1EC
:1007B000010800F8011C09980FA9A1EB0807FF1D0B
:1007C00000B10120411901EBEA70A1693844081A0F
:1007D000401EA0612078C00602D42046AFF30080FE
:1007E000099828B1D4E901219047206A401C206271
:1007F0002078C00622D52046AFF300801EE0002EF0
:1008000004DBB34502DD01A8805D00E03020D4E9BF
:1008100001219047206A401C2062761CAAF1010049
:100820005FEA000A0AD100F03FF8C0680168405C46
:10083000D4E901219047206A401C2062281EA5F1BE
:100840000105DCDC07E0D4E9012118F8010B904731
:10085000206A401C2062381EA7F10107F3DC204605
:10086000AFF30080032011B041E6000001694A1C8B
:1008700002610878704700B58FB0CDE901310021E1
:10088000059105497944CDE9031011466846FFF703
:10089000FBFC0FB000BD0000E5FFFFFF0A6802F897
:1008A000010B0A60704700000048704758000020A4
:1008B00030B5B0F10A0271F100034FEA900E4EEA32
:1008C000817EB0EB0E0061EB91014FEA101E4EEA03
:1008D000017E10EB0E0041EB11114FEA102E4EEA93
:1008E000016E10EB0E0041EB11214FEA104E4EEA63
:1008F000014E10EB0E0041EB1141401841F1000197
:100900004FEAD00040EA41704FEAD1014FEA81043A
:1009100044EA907410EB800544EB01046D1944EB3C
:100920000404521BA3414FF0000348BF0A3200D514
:1009300030BD401C41F1000130BD00002DE9F04107
:100940001F46044603260168072A01F4006004DB01
:1009500008B116A505E016A503E008B115A500E04D
:1009600015A521F010002060A069C01EA0610FB184
:10097000401EA0612046AFF300804FB1D4E90121B1
:1009800038469047206A401C2062C01C206206E066
:10099000206AFAE7D4E9012115F8010B9047761E89
:1009A000F8D22046AFF30080BDE8F0814E414E0002
:1009B0006E616E00494E4600696E66002DE9F04793
:1009C000814616468AB0354878440DC88DE80D003A
:1009D00032487844801C03AC0DC884E80D0041F611
:1009E0009B300844372190FBF1F290FBF1F5A5F123
:1009F000800501FB12041B3C02D56442012000E08B
:100A00000020DFF898A080460027FA44AAF1BE0A29
:100A10000EE0E0070AD03246684607EB47010123A3
:100A20000AEB810103F0A9F98DE8070064107F1C2F
:100A3000002CEED1194F7F44AE3F19E0E80715D0E6
:100A400007EB04100DF1180A90E80E008AE80E007A
:100A5000C068F04201D1981908903246012306A9D6
:100A600003A803F08AF903AB83E807006D10641C48
:100A7000002DE3D14FF0010332466946B8F1000F73
:100A800003A802D003F064F901E003F076F9C9E9A4
:100A90000001C9F808200AB0BDE8F087F03700006F
:100AA00000487047380000207546FFF7F9FFAE4652
:100AB00005006946534620F00700854618B020B56A
:100AC000FFF780FBBDE820404FF000064FF0000725
:100AD0004FF000084FF0000BAC46ACE8C009ACE8A2
:100AE000C009ACE8C009ACE8C00921F007018D4697
:100AF000704710B50446AFF300802046BDE81040B3
:100B0000FFF74BBB4FF0013C50F8042B51F8043B6E
:100B10009A4221D1A2EB0C03934313EACC1317D1D1
:100B200050F8042B51F8043B9A4215D1A2EB0C0368
:100B3000934313EACC130BD150F8042B51F8043B28
:100B40009A4209D1A2EB0C03934313EACC13DBD0F6
:100B50004FF00000704700BFD01A01BAB1FA81F11E
:100B600001F0180122FA01F0CB40DBB2C0B2C01A8A
:100B7000C1F120012CFA01F3D11A914311EAC311FA
:100B8000E6D1704701491820ABBEFEE726000200FF
:100B900070470000FEE7000040F21810C2F20000AB
:100BA00000F022BAB0B5082A08D88B5C303B092B7C
:100BB00098BF0380531CDCB2092C01D1B0BD00BF2B
:100BC000544214F0030C2ED0CB5CA3F13004092C5A
:100BD00006D8048804EB840403EB4403303B038011
:100BE000BCF1010F02F102031DD0CB5CA3F1300474
:100BF000092C06D8048804EB840403EB4403303B3F
:100C00000380BCF1020F02F103030CD0CB5CA3F113
:100C10003004092C06D8048804EB840403EB440355
:100C2000303B0380131D541FE4B2032C38BFB0BD0A
:100C3000023304E0DDB2072D03F10403BED001EB63
:100C4000030C1CF8025CA3F1020EA5F13004092C80
:100C500008D8964506D9048804EB840405EB4404BF
:100C6000303C04801CF8014CA4F13005092D08D853
:100C7000964506D3058805EB850504EB4504303C15
:100C80000480CC5C0EF1020EA4F13005092D08D8C9
:100C9000964506D9058805EB850504EB4504303CEF
:100CA00004809CF80140A4F13005092DC2D80EF152
:100CB00001059542BED9058805EB850504EB450580
:100CC000303D0580B6E7000040F28410C2F200001B
:100CD00000F0BEBC40F24010C2F2000000F0B8BC10
:100CE00070470000EFF3108072B600BFFEE700000F
:100CF00090F82020013A012A08D8006800F1140277
:100D00000020136819431160704700BF00F12402EE
:100D100001204FF4802113681943116070470000CF
:100D200010B590F820E0D0F800C0AEF1010EBEF191
:100D3000010FDCF808E00FD81EF0E05F16D0CEF30C
:100D4000016E012000FA0EF018608B68C3B148688C
:100D500043EAC00316E000BF00F1240101204FF474
:100D600080220B681A430A6010BD00BF00F1240105
:100D700001204FF400120B681A430A6010BD00BF37
:100D800008684305D1E9030403430CEB0E10C0F8D7
:100D90008031C0F88441097D012905D100F5C27177
:100DA0000B6843F480730B605168C0F88C111268B3
:100DB00000F5C071C0F88821002001220B681A4399
:100DC0000A6010BDB0B5026890F82030013B012BDD
:100DD00028D8D2F80002012340F00100C2F8000236
:100DE000D1F814E0CC690EF01F0003FA00F0D2F83D
:100DF0001C326FEA000C8343012CC2F81C3217D05E
:100E00006CBBD2F80C3203EA0C03C2F80C32CB688C
:100E10008C8844EA034302EBCE04C4F840320B460C
:100E200015E000BF416A41F4802141620120B0BD5C
:100E3000D2F80C320343C2F80C320B688C8844EAB7
:100E4000034302EBCE04C4F8403201F10C038C687A
:100E50001B8843EA044302EBCE04C4F84432D2F8C0
:100E600004328D6943EA0004D1F810E0096A002DCC
:100E700008BF03EA0C04C2F80442D2F81432BEF1EF
:100E8000000F43EA000408BF03EA0C040129C2F87A
:100E9000144204D1D2F81C120843C2F81C02D2F842
:100EA000000220F00100C2F800020020B0BD0000E6
:100EB0007047000010B590F82040013C012C7BD811
:100EC000D0F800C0002900F08180DCF81040A407B1
:100ED00000F081800CEB011CDCF8B0410CF5D87EF1
:100EE00014F004049460DCF8B04119BFE4085460C5
:100EF000640D1460DEF800400CF5DA7E04F00204A4
:100F0000D460DCF8B44124075ABFDEF8004004F096
:100F10000F0408241461DEF800400029C4F30724FC
:100F20009461DEF800404FEA14445461DCF8B821C3
:100F30001A70026802EB0112D2F8B8214FEA1222AD
:100F40005A70026802EB0112D2F8B8214FEA12423D
:100F50009A70026802EB0112D2F8B8214FEA1262CD
:100F6000DA70026802EB0112D2F8BC211A71026831
:100F700002EB0112D2F8BC214FEA12225A71026828
:100F800002EB0112D2F8BC214FEA12429A710268B8
:100F900002EB0112D2F8BC214FEA1262DA7100684A
:100FA00014BF00F1100100F10C01002020220B6899
:100FB0001A430A6010BD00BF00F1240101204FF464
:100FC00080220B681A430A6010BD00BFDCF80C4099
:100FD000A4077FF47FAF00F1240101204FF4001239
:100FE0000B681A430A6010BD2DE9F04F81B004462A
:100FF00000684669D0F804908768D0F80CB0D0F843
:1010000010A0D0F81880F10704D1002530071DD4B6
:1010100024E000BFF90710D00121BA07816009D48C
:10102000780700F1AF80380700F1B680204600F065
:1010300083FA02E0204600F081FA0025F80500F16D
:101040008780F80300F1B180300707D51BF010004E
:1010500004D0206845F400751021C160700708D5E0
:101060001BF0080005D020680821C160204600F070
:10107000B3F9B00706D52068C068800702D02046C3
:1010800000F0ACF9700607D51AF0100004D0206803
:1010900045F4806510210161B00608D51AF00800FA
:1010A00005D0206808210161204600F011FAF00601
:1010B00006D520680069800702D0204600F00AFAB1
:1010C000B00308D519F0100005D020681021416048
:1010D000204600F001FAF00308D519F0080005D009
:1010E000206808214160204600F032FA300440F1C7
:1010F0009B805FEA497040F1948006F4807008EAB2
:10110000102028435FEA8871014648BF41F0020180
:10111000B20558BF01465FEA48700D4648BF45F02A
:101120000405700558BF0D46300540F17A8018F06F
:10113000700000F076801038000905286CD8DFE8D0
:1011400000F003595D61656945F0080564E000BF82
:1011500020684FF48071BA0581600BD4780515D4EE
:1011600038051DD4204600F0EBF9F8037FF56CAF8D
:101170001BE000BF204600F0E5F9F8037FF564AFFF
:1011800013E000BF4FF4006558E700BF05F50055B8
:10119000F8037FF559AF08E04FF480554EE700BFE4
:1011A00005F58045F8037FF54FAF20684FF4803197
:1011B000BA0381600AD4780310D4380314D42046CB
:1011C00000F0C2F930073FF541AF47E7204600F095
:1011D000BDF930073FF53AAF40E700BF05F50045E0
:1011E00030073FF533AF39E705F5803530073FF578
:1011F0002DAF33E745F010050EE000BF45F02005A8
:101200000AE000BF45F0400506E000BF45F080055C
:1012100002E000BF45F480752068816921F070010B
:10122000816120680421416055B1606A40EA05018E
:101230002046616201B0BDE8F04FFFF739BE00BF44
:1012400001B0BDE8F08F0000B0B5C8B1044690F819
:10125000200010B9204600F071F82068016841F0C4
:101260000101016000F06EFC054600BF2068416886
:10127000C90707D100F066FC401B0B28F6D312E02B
:101280000120B0BD016821F00201016000F05AFCAC
:10129000054600BF2068416889070DD500F052FC63
:1012A000401B0B28F6D3606A052140F400306062D1
:1012B000012084F82010B0BD217E0268012922F0AF
:1012C000800208BF80320260617E0268012922F03C
:1012D000400208BF40320260A17E0268012922F06C
:1012E000200208BF20320260E17E0268012922F05C
:1012F000100218BF10320260217F0268012922F01B
:10130000080208BF08320260617F0268012922F0EA
:10131000040208BF04320260D4E901C2D4E90335F3
:1013200061691A432A431143ACF101021143C161BF
:1013300000200121606284F82010B0BDB0B586B0F5
:1013400040F60004C4F201040068A4F52442002120
:101350009042059102D006B0B0BD00BF41F2180026
:10136000C4F20200426802AD42F00072426042687C
:1013700002F000720192019A026842F004020260D7
:10138000006800F00400019001984FF40060CDE97E
:10139000020104912046294600F0BCFA4FF4805027
:1013A000029002200390032005902046294600F079
:1013B000B1FA14200221002200F042FC142000F0B7
:1013C0002FFC15200221002200F03AFC152000F02D
:1013D00027FC06B0B0BD00007047000070B540F2B9
:1013E0009806C2F2000640F2FC0506F11404C2F2AF
:1013F000000500212A462346FFF75CFDA0B92868B6
:1014000040F2812188420FD140F20005C2F200056E
:10141000F07D297B884209D120460421072204243B
:1014200001F00AFF286149E070BD00BF297D8842B4
:1014300008D120460421072201F0FEFEA861022403
:101440003CE000BF297F884208D1204604210722C2
:1014500001F0F2FE2862012430E000BF29788842C2
:101460000ED120460621072201F04CFF688020465D
:101470000421052201F046FFA88008241EE000BFD9
:10148000A97988420ED120460621072201F03AFFB1
:10149000288120460421052201F034FF68810824B8
:1014A0000CE000BF95F82410884218BF70BD20469C
:1014B0000421072201F092FF1024A86240F60000E8
:1014C000C4F201002146BDE8704000F02DBB0000D1
:1014D000704700007047000070470000B0B5044638
:1014E00090F8200001281DD1022084F820002068F7
:1014F000016821F00101016000F024FB054600BFF6
:1015000020684068C00713D000F01CFB401B0B286C
:10151000F6D3606A40F400306062052084F8200051
:101520000120B0BD606A40F4002060620120B0BDBF
:1015300000206062B0BD00007047000070470000EE
:1015400070470000704700007047000070470000BF
:1015500070470000014690F82100022816D1086863
:10156000D1E90FC3026822F00E020260026822F085
:1015700001020260012000FA03F2CCF8042081F895
:1015800021000020002281F8202070470420886379
:101590000120002281F820207047000080B590F8DB
:1015A0002110022924D10268116821F00E01116076
:1015B0002F211368C4F202018A4240F20401C4F2EE
:1015C000020123F00103136016DD3023C4F202038D
:1015D0009A421DD04423C4F202039A421CD05823DD
:1015E000C4F202039A421DD14FF4803322E000BFBF
:1015F00004218163012080BD0823C4F202039A42C2
:101600000ED01C23C4F202039A420BD1102311E026
:101610004FF480730EE000BF4FF480530AE000BF28
:10162000012307E001F1680C4FF08073624508BFA9
:101630004FF480130B60012180F82110426B0021D0
:1016400080F820100AB190470021084680BD0000B4
:1016500010B5D0E90FCE0168DCF800300A6823FA33
:101660000EF35C072AD512F0040427D00A6892060C
:1016700003D40A6822F004020A602F22C4F2020294
:10168000914240F20402C4F202025BDD3023C4F254
:101690000203994272D04423C4F20203994273D0E8
:1016A0005823C4F20203994240F07A804FF4802319
:1016B0001360C16A002940F098806FE09C0727D52D
:1016C00012F0020424D00A68920606D40A6822F0B6
:1016D0000A020A60012280F821202F22C4F20202AD
:1016E000914240F20402C4F202023BDD3023C4F214
:1016F0000203994260D04423C4F2020399425FD0AE
:101700005823C4F20203994260D14FF4003365E0DC
:101710001B0743D512F0080208BF10BD0A6822F06B
:101720000E020A60012101FA0EF2CCF80420816356
:1017300080F82110016B0022002980F8202054D16C
:101740002CE000BF0823C4F20203994222D01C23DC
:10175000C4F20203994223D140231360C16A0029D5
:1017600043D11BE00823C4F2020399422CD01C236E
:10177000C4F20203994229D120232FE04FF4806361
:101780001360C16A89BB09E04FF480431360C16AEA
:1017900059BB03E004231360C16A31BB10BD00BF15
:1017A00002F168044FF08063A14208BF4FF4800348
:1017B0001360C16AC9B9F1E74FF400730EE000BFCE
:1017C0004FF400530AE000BF022307E002F168046F
:1017D0004FF00073A14208BF4FF400131360816AF9
:1017E0000022002980F82020D8D0BDE8104008470A
:1017F000014600284FF0010008BF70472DE9F04373
:10180000D1F800C04FF6F873CBF6FD734CF6CD421D
:101810006344CCF6CC42A3FB02236FF0030707EA34
:1018200093030027C4F2020701F10C09C1E90F7309
:101830000223D1E9012E99E87002D1F81C8081F8C9
:101840002130DCF8003043F6F077BB431A4342EA1C
:101850000E0222432A43324342EA090242EA0802C4
:10186000CCF8002000228A6381F8210081F8202032
:101870000020BDE8F0437047F0B590F820C0BCF1FF
:10188000010F32D04FF0010E80F820E090F821C017
:10189000BCF1010F26D14FF0020C80F821C04FF0AF
:1018A000000CC0F838C0D0E900C4C56AC66BDCF8CB
:1018B0000070102C27F00107CCF80070006C0EFAB5
:1018C00000F070600846CCF8043004BF10460A46A9
:1018D000CCF80800CCF80C20DCF8000045B140F052
:1018E0000E000DE0002180F820100220F0BD00BFA6
:1018F00020F00400CCF80000DCF8000040F00A0002
:10190000CCF80000DCF8000040F00100CCF800004A
:101910000020F0BD2DE9F04F82B041F20042C4F248
:1019200001020E680423904208BF0323002E009397
:1019300000F0F68040F2004C4FF6FF7E0022C4F229
:10194000010C0124C1F2100E4FF0000A4FF0000903
:1019500047E000BF012502F00C040F27A7402BEA47
:10196000070705FA04F43C4343F82640D1F804B0D5
:1019700040F20C455FEACB23DCF8083054BF23EA81
:10198000080343EA0803C4F20105CCF808302B68C9
:101990005FEA8B2454BF23EA080343EA08032B6061
:1019A0005FEA8B34DCF8043054BF23EA080343EACF
:1019B00008035FEACB34CCF80430DCF800304FF099
:1019C000010454BF23EA080343EA0803CCF80030BB
:1019D0000E680AF1010A36FA0AF302F1040200F075
:1019E0009F8004FA0AF816EA080FF1D04B68734595
:1019F00012DC122B56D8DFE803F0350B454955555C
:101A000055555555555555555555554D510000BFD2
:101A1000D1F80C9046E000BF4FF6FF75C1F22105EA
:101A2000AB420FDC0025C1F21105AB421AD00025F4
:101A3000C1F21205AB4215D00025C1F22105AB421F
:101A400010D02FE00025C1F22205AB420AD00025BC
:101A5000C1F23105AB4205D00025C1F23205AB42DF
:101A600020D100BF8B684BB1012B14BFC0F814808C
:101A7000C0F810804FF0080914E000BF4FF00409CF
:101A800010E000BFCB6803F108090BE04FF000093C
:101A900008E000BFCB6803F1040903E0CB6803F161
:101AA0000C0900BF13460546BAF1080F24BF203BBE
:101AB00004352E680F279F40BE4309FA03F33343D2
:101AC0002B60CB79DB067FF583AF41F21804C4F2BB
:101AD000020423684FEA9A0643F001032360236857
:101AE00040F6000403F001030193019BACF57E7303
:101AF00053F826B0C4F20104A0420FD040F60044CF
:101B0000C4F20104A0423FF425AF41F20004C4F244
:101B10000104009DA04208BF02251CE700251AE72A
:101B200002B0BDE8F08F0000C26802EA01039143F1
:101B300041EA034101617047002A08BF09040161BD
:101B40007047000040F21020C2F2000000687047A9
:101B500040F22C0040F21021C2F20000C2F200015B
:101B600000780A68104408607047000080B542F2AF
:101B70000000C4F20200016841F01001016003207E
:101B800000F08AF80F2000F005F800F027F8002098
:101B900080BD000070B540F22C06C2F2000640F293
:101BA00034013278C2F200014FF47A730968B3FB52
:101BB000F2F20446B1FBF2F1084600F05FFB0F2C95
:101BC0004FF0010508D838B94FF0FF302146002208
:101BD000002500F035F87460284670BD82B041F2EF
:101BE0001800C4F202000168022241F00101016004
:101BF000016801F0010101910199416841F08051B2
:101C00004160406800F08050009000980420C4F2C9
:101C10000100016862F31A61016002B070470000C0
:101C2000002848BF704700F01F01012202FA01F1AD
:101C30004EF200124009CEF2000242F82010704726
:101C400010B54EF60C5CCEF2000CDCF80030C3F39D
:101C5000022E8EF00704042C28BF0424BEF10303D7
:101C60004FF0FF3E0EFA04F438BF0023A143994021
:101C70000EFA03F39A43114300F00F02043A624450
:101C800009010C3200F16043B0F1FF3FC8BF03F51A
:101C90006442117010BD00004EF60C51CEF20001EE
:101CA0000A684FF6FF031A4060F30A2242F0806090
:101CB00040F0FD70086070472DE9F04381B00028C6
:101CC00000F0858042F20008C4F202080446D8F809
:101CD00000000D4600F0070088420CD2D8F8000042
:101CE00020F007002843C8F80000D8F8000000F0F2
:101CF0000700A8426BD1206841F204098107C4F2B1
:101D0000020917D5410705D5D9F8001041F4E06163
:101D1000C9F80010010705D5D9F8001041F4605149
:101D2000C9F80010D9F80010A26821F0F0011143A1
:101D3000C9F80010C00741D1D8F8000000F0070032
:101D4000A8420CD9D8F8000020F007002843C8F8B2
:101D50000000D8F8000000F00700A84237D1206842
:101D6000410707D5D9F80010E26821F4E06111437A
:101D7000C9F80010000708D5D9F80000216920F43F
:101D8000605040EAC100C9F80000D9F8002002F014
:101D90000C00082841F20020C0F27A0050D144F231
:101DA000EE13C2F38341C0F60003595CD2033BD467
:101DB00040F60010C0F23D00484341E06068022850
:101DC0000AD001282AD159F8041C890308D401201B
:101DD00001B0BDE8F08300BF59F8041C8901F6D5B5
:101DE000D9F8001021F003010843C9F80000FFF7FB
:101DF000A9FE064641F28837D9F80000616800F074
:101E00000C00B0EB810F97D0FFF79CFE801BB8420F
:101E1000F2D9032001B0BDE8F08300BF59F8041CDB
:101E20008907D4D5DCE700BFD9F8002044F2EC13D1
:101E3000C2F34042C0F600039A5C4843B0FBF2F0A4
:101E4000D9F8001044F2D412C1F30311C0F6000215
:101E5000515C40F2340220FA01F140F23000C2F24B
:101E600000000068C2F200021160FFF793FE00203C
:101E700001B0BDE8F083000040F2340041F20401FB
:101E8000C2F20000C4F202010068096844F2E412E0
:101E9000C1F30221C0F60002515CC8407047000047
:101EA00040F2340041F20401C2F20000C4F2020127
:101EB0000068096844F2E412C1F3C221C0F60002CE
:101EC000515CC840704700002DE9F04182B0002805
:101ED00068D00446007841F20006C007C4F202064A
:101EE00025D0706800F00C0004281BD0706800F04A
:101EF0000C00082802D17068C00313D46068002861
:101F000000F06881B0F5A02F00F07C81B0F5803F33
:101F100000F07C81306820F480303060306820F43C
:101F2000802076E13068800301D56068D0B32078E6
:101F3000800718D5706810F00C0F07D0706800F09B
:101F40000C0008286ED17068C0036BD4306880071D
:101F500002D52069012825D13068616920F0F80098
:101F600040EAC1003060207800071FD42078400785
:101F700032D4E56995B1706800F00C00082840F093
:101F80008F80012D0ED07068216A00F480328A4261
:101F900008D1616A00F47010884203D1002002B0B9
:101FA000BDE8F081012002B0BDE8F081A069002801
:101FB00062D00020C4F242200121C0F88014FFF753
:101FC000C1FD0546706A800700F18C80FFF7BAFDFD
:101FD000401B0228F6D92AE1F06910F0805808D198
:101FE000F06940F08050F061F06900F0805000909E
:101FF000009847F20007C4F200073868C00529D4EA
:10200000386840F480703860FFF79CFD054600BFDB
:102010003868C0051ED4FFF795FD401B6428F7D92A
:1020200005E100BF2069002840F20000C4F2422010
:1020300000F0828001210160FFF784FD054600BFAA
:10204000306880073FF588AFFFF77CFD401B022812
:10205000F6D9ECE0E068002800F08080052800F068
:102060009780012800F09880306A20F001003062EB
:10207000306A20F0040092E00020C4F242200021E7
:10208000C0F88014FFF75EFD054600BF706A800748
:102090007FF56CAFFFF756FD401B0228F6D9C6E06E
:1020A0000027C4F2422700203866FFF74BFD022DBF
:1020B00005460BD13068800140F1BE80FFF742FD3C
:1020C000401B02284FF00300F4D968E73068800114
:1020D0007FF564AFFFF736FD401B02284FF0030089
:1020E000F4D95CE740F23400C2F20000006844F624
:1020F000D351C1F26201A0FB0101480A019000BF67
:1021000000BF0198411E002801913FF42FAF00BF8E
:102110000198411E002801913FF428AF00BF0198AB
:10212000411E002801913FF421AF00BF0198411EDC
:1021300000280191E4D119E700210160FFF702FDB9
:10214000054600BF306880077FF50DAFFFF7FAFC4A
:10215000401B02284FF00300F4D920E7306A20F03A
:1021600001003062306A20F004003062FFF7EAFCC0
:10217000054641F2883700BF306A800720D5FFF757
:10218000E1FC401BB8424FF00300F5D907E700BF60
:10219000306A40F004003062306A40F00100306282
:1021A000FFF7D0FC054641F2883700BF306A800750
:1021B00006D4FFF7C7FC401BB842F7D937E000BF91
:1021C000B8F1000F7FF4D5AEF06920F08050F061D7
:1021D000CFE600BF306820F480303060306820F4F3
:1021E00080203060FFF7AEFC054600BF30688003FA
:1021F0007FF59DAEFFF7A6FC401B64284FF003005F
:10220000F4D9CCE6306840F480203060306840F487
:1022100080303060FFF796FC054600BF30688003D1
:102220003FF585AEFFF78EFC401B6428F6D90320EE
:1022300002B0BDE8F08100BF206AB0F5803F05D153
:102240007168A26821F40031114371607168626A9B
:1022500021F4741110430843706001203866FFF7C1
:1022600071FC0446306880013FF598AEFFF76AFCC8
:10227000001B02284FF00300F4D990E6411E002015
:10228000B0EB116F1CBF012070474EF21002CEF26E
:10229000000251604EF62351CEF20001F0230B7084
:1022A0000721906011607047704700007047000080
:1022B000B0B582B0044600680168C368426901F0A5
:1022C0002F05202D03F0200506D12DB1204602B0A8
:1022D000BDE8B04000F022BF5FEA017C1EBF02F003
:1022E000010E03F4907212EB0E0255D1226B012AFB
:1022F00005D111F0100218BF13F0100236D10A06F2
:1023000022D513F080021FD094F84110212941D129
:10231000A168B1F5805F03D12169002900F07282C4
:10232000216A4A1C226209784160E18C01390A0461
:10233000E1842FD1C16821F08001C160C16841F002
:102340004001C16002B0B0BD490623D513F0400181
:1023500020D0C16821F04001C1602021204684F8CE
:10236000411002B0BDE8B04000F07EBC00210191F8
:10237000016801914168019101994169490600F1A3
:102380008F80A18DE28DE38D002B1CBF891A5FEA3F
:1023900001420CD102B0B0BDCA0718BF13F480725D
:1023A00040F038814A0700F13B8140E1206850E865
:1023B000030F226820F4907042E80303DBB1206829
:1023C00050E8030F226820F4907042E8030393B1B1
:1023D000206850E8030F226820F4907042E803035D
:1023E0004BB1206850E8030F226820F4907042E857
:1023F0000303002BDAD1206850E8050F226820F093
:10240000010042E80503DBB1206850E8050F2268AF
:1024100020F0010042E8050393B1206850E8050F61
:10242000226820F0010042E805034BB1206850E823
:10243000050F226820F0010042E80503002BDAD1E5
:10244000202084F8420000202063206850E8030F19
:10245000226820F0100042E80303DBB1206850E856
:10246000030F226820F0100042E8030393B12068B4
:1024700050E8030F226820F0100042E803034BB13C
:10248000206850E8030F226820F0100042E80303A0
:10249000002BDAD1022289B220466263B4E000BF89
:1024A000E16B0A68526893B2002B3FF473AFA58DBD
:1024B000AB42BFF46FAFE2858969202900F09D80AF
:1024C00050E8030F216820F4807041E80302EAB16C
:1024D000206850E8030F216820F4807041E803026F
:1024E000A2B1206850E8030F216820F4807041E811
:1024F00003025AB1206850E8030F216820F480706D
:1025000041E8030212B12068DAE700BF206850E812
:10251000050F216820F0010041E80502DAB12068CA
:1025200050E8050F216820F0010041E8050292B152
:10253000206850E8050F216820F0010041E80502FD
:102540004AB1206850E8050F216820F0010041E8F9
:102550000502002ADAD1206850E8050F216820F032
:10256000400041E80502DAB1206850E8050F216813
:1025700020F0400041E8050292B1206850E8050FC4
:10258000216820F0400041E805024AB1206850E887
:10259000050F216820F0400041E80502002ADAD149
:1025A000202084F8420000202063206850E8030FB8
:1025B000216820F0100041E80302DAB1206850E8F9
:1025C000030F216820F0100041E8030292B1206857
:1025D00050E8030F216820F0100041E803024AB1DF
:1025E000206850E8030F216820F0100041E8030242
:1025F000002ADAD1E06BFEF7ADFF02206063A08D08
:10260000E18D401A81B2204602B0BDE8B040FFF72C
:102610004BBE00BF626C42F0010262644A0706D5FD
:10262000BEF1000F03D0626C42F0020262648A07BE
:1026300006D5BEF1000F03D0626C42F00402626462
:10264000BCF1000F06D555EA0E0203D0626C42F0D1
:1026500008026264626C002A3FF49CAE11F0200113
:1026600018BF002D03D0204600F058FD20684169B6
:10267000626C01F0400102F00802891800F0A280AB
:1026800050E8030F216820F4907041E80302C2B3C0
:10269000206850E8030F216820F4907041E803029D
:1026A0007AB3206850E8030F216820F4907041E865
:1026B000030232B3206850E8030F216820F49070C1
:1026C00041E80302EAB12068DAE700BF206850E879
:1026D000050F216820F0010041E80502DAB1206809
:1026E00050E8050F216820F0010041E8050292B191
:1026F000206850E8050F216820F0010041E805023C
:102700004AB1206850E8050F216820F0010041E837
:102710000502002ADAD1206B012824D1206850E874
:10272000030F216820F0100041E80302DAB12068AD
:1027300050E8030F216820F0100041E8030292B135
:10274000206850E8030F216820F0100041E80302E0
:102750004AB1206850E8030F216820F0100041E8DA
:102760000302002ADAD1202084F8420000202063EE
:102770002068416949063FD550E8050F216820F0DF
:10278000400041E805022AB3206850E8050F21689F
:1027900020F0400041E80502E2B1206850E8050F52
:1027A000216820F0400041E805029AB1206850E815
:1027B000050F216820F0400041E8050252B1206871
:1027C000DAE700BF2046FFF771FD0020606402B029
:1027D000B0BD00BFE06B78B142F66551C0F60001B4
:1027E0004163FEF7DBFE00283FF4D4ADE06B416BA4
:1027F00002B0BDE8B0400847204602B0BDE8B04096
:10280000FFF754BD216A31F8022B6FF35F2242605B
:1028100021628AE5002804BF0120704710B50446F4
:1028200090F8410028B9002084F84000204600F0CC
:1028300061F8242084F841002068D4E90212C368BA
:1028400023F40053C360036923F440531A43026125
:10285000D4E904231143C268194341F20C639A433B
:102860001143C1604169A26921F44071114343F6EB
:102870000002C4F201029042416103D0FFF7FCFA6A
:1028800002E000BFFFF70CFB62681921484391008A
:10289000B0FBF1F048F21F51C5F2EB11A0FB012390
:1028A0005A096FF0630302FB0300322303EB0010AD
:1028B000A0FB0101F02303EA5113206803EB02128D
:1028C000C1F3431111448160016921F49041016118
:1028D000416921F02A014161C16841F40051C160A0
:1028E00000202021606484F8411084F84210606365
:1028F00010BD00002DE9F04385B040F600450446C8
:10290000C4F201050068A5F54441002788420397F9
:1029100002D005B0BDE8F08341F21800C4F2020015
:10292000416801AE41F480214160416840F21C08D9
:1029300001F48021009100990168C4F2020841F07D
:10294000080101600068314600F00800009000981E
:102950004FF48060019002200290032004902846EA
:10296000FEF7D8FF4FF40060CDE901072846314655
:102970000397FEF7CFFF40F2401508F11400C2F2B2
:10298000000580264FF020094FF40051C5E90007EB
:102990002846C5E90276C5E90477C5E90691FEF740
:1029A00027FF002818BFFEF79DF9E5636C6240F22F
:1029B0008415C2F2000510200021C5E900802846D8
:1029C000C5E90216C5E90411C5E90691FEF710FF35
:1029D000002818BFFEF786F9272000210022A563F2
:1029E0006C62FFF72DF92720FFF71AF905B0BDE853
:1029F000F083000070B582B0044690F842002028B1
:102A00000AD113460A4600294FF0010018BF002BD7
:102A100006D102B070BD00BF022002B070BD00BF81
:102A2000002522202563A262A385656484F8420004
:102A30002168E06B42F6ED6C43F24D0E42F67156A2
:102A4000C0F6000CC0F6000EC0F600060431C0E966
:102A50000ACEC0E90C65FEF70FFF019520680168FA
:102A60000191416801910199216929B350E8030F4F
:102A7000216840F4807041E80302EAB1206850E820
:102A8000030F216840F4807041E80302A2B120687E
:102A900050E8030F216840F4807041E803025AB106
:102AA000206850E8030F216840F4807041E8030279
:102AB00012B12068DAE700BF206850E8050F2168EE
:102AC00040F0010041E80502E2B1206850E8050F3E
:102AD000216840F0010041E805029AB1206850E801
:102AE000050F216840F0010041E8050252B120685D
:102AF00050E8050F216840F0010041E80502002A76
:102B0000DAD100BF206850E8050F216840F040008E
:102B100041E80502DAB1206850E8050F216840F06D
:102B2000400041E8050292B1206850E8050F216895
:102B300040F0400041E805024AB1206850E8050F26
:102B4000216840F0400041E80502002ADAD1002067
:102B500002B070BD10B5006844F60001C4F2000177
:102B6000884218BF10BD40F29804C2F20004607899
:102B70000A280BD194F82C0000F0F0FD002084F816
:102B80003400C4E90B00A07010BD00BFA17862182A
:102B900082F82C00481CA07010BD00007047000097
:102BA00070B5044690F8410020281CBF022070BD7B
:102BB00000294FF0010553D01346002A50D00025BC
:102BC00021202162A384E384656484F841002268A3
:102BD000A06B43F2650C43F2151E42F67156C0F627
:102BE000000CC0F6000EC0F600060432C0E90ACEA2
:102BF000C0E90C65FEF740FE20686FF0400140F828
:102C0000141B50E8000F216840F0800041E80502E5
:102C100032B300BF206850E8050F216840F0800003
:102C200041E80502F2B1206850E8050F216840F044
:102C3000800041E80502AAB1206850E8050F21682C
:102C400040F0800041E8050262B1206850E8050FBD
:102C5000216840F0800041E80502002ADAD1002511
:102C6000284670BD002070BD10B540F29804C2F235
:102C7000000420780021062884F84910C4F8451083
:102C8000C4F84110C4F83D10C4F83910C4F8351028
:102C900040D8DFE800F0053F153F253F350000BF75
:102CA00040F20000C2F20000006A01F0D5F90246CD
:102CB0000B4604F1350021A1FDF796FA2AE000BF8A
:102CC00040F20000C2F20000806901F0C5F902463E
:102CD0000B4604F1350017A1FDF786FA1AE000BF94
:102CE00040F20000C2F20000006901F0B5F90246AE
:102CF0000B4604F135000DA1FDF776FA0AE000BF9E
:102D000040F20000C2F20000826A04F1350005A121
:102D1000FDF76AFA20780130C1B20A2988BF002085
:102D2000207010BD0A412564000000000A56252EBF
:102D3000316600000A44252E316600000A59252E0E
:102D40003166000070470000FEE70000FEE700006B
:102D5000FEE700007047000070470000FEF7F8BE75
:102D600070470000406A0021C185C184FFF79EBA08
:102D7000406A01684A6990F84130212B2ED112F047
:102D800080022BD00022C28451E8031F026821F088
:102D9000C00142E80313EBB1016851E8031F026868
:102DA00021F0C00142E80313A3B1016851E8031FF9
:102DB000026821F0C00142E803135BB1016851E8E9
:102DC000031F026821F0C00142E8031313B1016838
:102DD000DAE700BF202180F8411001684A6990F8C5
:102DE0004230222B7CD112F0400279D00022C285E1
:102DF00051E8031F026821F4907142E80313C3B342
:102E0000016851E8031F026821F4907142E803133E
:102E10007BB3016851E8031F026821F4907142E816
:102E2000031333B3016851E8031F026821F4907162
:102E300042E80313EBB10168DAE700BF016851E82B
:102E4000051F026821F0010142E80513DBB10168AA
:102E500051E8051F026821F0010142E8051393B112
:102E6000016851E8051F026821F0010142E80513DD
:102E70004BB1016851E8051F026821F0010142E8E9
:102E80000513002BDAD1016B012924D1016851E827
:102E9000031F026821F0100142E80313DBB101684F
:102EA00051E8031F026821F0100142E8031393B1B7
:102EB000016851E8031F026821F0100142E8031382
:102EC0004BB1016851E8031F026821F0100142E88C
:102ED0000313002BDAD1202180F842100021016376
:102EE000416C41F010014164FFF7E0B90168406AAC
:102EF0000968890600F19F800021C185016851E8B9
:102F0000031F026821F4807142E80313E3B10168F2
:102F100051E8031F026821F4807142E803139BB15A
:102F2000016851E8031F026821F4807142E803132D
:102F300053B1016851E8031F026821F4807142E82F
:102F40000313002BDAD100BF016851E8051F0268A6
:102F500021F0010142E80513BBB3016851E8051FE8
:102F6000026821F0010142E8051373B3016851E8DA
:102F7000051F026821F0010142E805132BB3016827
:102F800051E8051F026821F0010142E80513002BFA
:102F9000DAD11AE0016851E8051F026821F040010A
:102FA00042E80513DBB1016851E8051F026821F012
:102FB000400142E8051393B1016851E8051F02681A
:102FC00021F0400142E805134BB1016851E8051FAB
:102FD000026821F0400142E80513002BDAD12021DC
:102FE00080F84210016B012925D100BF016851E82A
:102FF000031F026821F0100142E80313DBB10168EE
:1030000051E8031F026821F0100142E8031393B155
:10301000016851E8031F026821F0100142E8031320
:103020004BB1016851E8031F026821F0100142E82A
:103030000313002BDAD100214163016B012918BF72
:10304000FFF788BD818DFFF72FB90000406A01218D
:103050004163016B012918BFFFF7A0BD818D4908AD
:10306000FFF722B90168406A0968890648BFFFF77F
:10307000FBBD0021C18400BF016851E8051F026843
:1030800021F0800142E8051383B3016851E8051F70
:10309000026821F0800142E805133BB3016851E862
:1030A000051F026821F0800142E80513F3B10168B1
:1030B00051E8051F026821F0800142E80513002B4A
:1030C000DAD113E0016851E8031F026841F04001C2
:1030D00042E80313002B08BF7047016851E8031F43
:1030E000026841F0400142E8031393B1016851E8DE
:1030F000031F026841F0400142E803134BB101682D
:1031000051E8031F026841F0400142E80313002B1D
:10311000D8D17047406AFFF715BE000081B090F823
:103120004210222920D18368B3F5805F08D101695C
:10313000002965D000F128010A6803685B680AE08D
:10314000014651F8282F13B90369002BF5D0036805
:103150005B6803F07F0313700A6801320A60C18D57
:1031600001390A04C18501D001B070470168CA68FD
:1031700022F02002CA60CA6822F48072CA604A69DA
:1031800022F001024A61202280F84220002242639C
:10319000036B012B3ED1026351E8031F026821F04B
:1031A000100142E803130168DBB151E8031F026814
:1031B00021F0100142E80313016893B151E8031FA5
:1031C000026821F0100142E8031301684BB151E895
:1031D000031F026821F0100142E803130168002B6D
:1031E000DAD10A68D20606D5002200920A68009257
:1031F000496800910099818D01B0FFF755B800BF73
:103200000168826A49686FF35F2122F8021B8262BB
:10321000A5E700BF01B0FFF79DBC000040F2C81059
:10322000C2F20000FFF744B840F21810C2F20000EA
:10323000FDF7DABEFEE700002DE9F0438A423CBF0D
:103240000020BDE8F083531A5A1C032B02F0030C34
:1032500008D24FF0000EBCF1000F34D17046BDE82B
:10326000F08300BF4C42014422F0030203394FF0C7
:10327000000E00BF11F8046FDDB211F8017CED0003
:1032800007FA05F545EA0E075D1EEDB2ED00AE400A
:1032900037439E1E91F80180F6B2F60008FA06F652
:1032A0003743DE1E91F80290F6B2F60009FA06F6F0
:1032B00046EA070E043B043AA4F10404DAD1614261
:1032C000BCF1000FCAD0425CDCB2E400A240BCF109
:1032D000010F4EEA020EC1D00844591E4278C9B20D
:1032E000C90002FA01F1BCF1020F4EEA010EB5D09D
:1032F000991E8078C9B2C90088404EEA000E704617
:10330000BDE8F0832DE9F043914205D94FF0000E5E
:103310001FFA8EF0BDE8F083531A5A1C032B02F0FB
:10332000030C09D24FF0000E0122BCF1000F34D182
:103330001FFA8EF0BDE8F0834C42014422F00303F3
:1033400003394FF0000E012211F8046FD5B211F8C5
:10335000017CED0007FA05F54EEA0507551EEDB2B2
:10336000ED00AE403743961E91F80180F6B2F600AC
:1033700008FA06F63743D61E91F80290F6B2F60028
:1033800009FA06F647EA060E043A043BA4F10404DF
:10339000DAD16142BCF1000FCAD0435CD4B2E40080
:1033A000A340BCF1010F4EEA030EC1D00844511EE8
:1033B0004378C9B2C90003FA01F1BCF1020F4EEA29
:1033C000010EB5D0911E8078C9B2C90088404EEA7E
:1033D000000E1FFA8EF0BDE8F08300002DE9F043E7
:1033E000914284BF0020BDE8F083531A5A1C032B7E
:1033F00002F0030C08D24FF0000E0323BCF1000FC3
:1034000033D17046BDE8F0834C42014422F0030200
:1034100003394FF0000E032311F8046FDDB211F8E9
:10342000017CED0007FA05F545EA0E075D1EEDB2D9
:10343000ED00AE4037439E1E91F80180F6B2F600D3
:1034400008FA06F63743DE1E91F80290F6B2F6004F
:1034500009FA06F646EA070E043B043AA4F104040E
:10346000DAD16142BCF1000FCBD0425CDCB2E400A7
:10347000A240BCF1010F4EEA020EC2D00844591E10
:103480004278C9B2C90002FA01F1BCF1020F4EEA5A
:10349000010EB6D0991E8078C9B2C90088404EEAA4
:1034A000000E7046BDE8F08370B59A4209D89C1AA8
:1034B000631C032C03F0030C04D20323BCF1000FA4
:1034C00029D170BD54420A4423F0030E033A03236A
:1034D0005E1EF6B2DDB2F600ED0020FA06F620FA26
:1034E00005F502F8046F02F8015C9D1EEDB2ED00D7
:1034F00020FA05F55570DD1EEDB2ED0020FA05F558
:10350000043BBEF1040EA4F104049570E0D16242C4
:10351000BCF1000FD5D0DCB2E40020FA04F4BCF119
:10352000010F8C54CDD011445A1ED2B2D20020FAD1
:1035300002F2BCF1020F4A7008BF70BD9A1ED2B2EF
:10354000D200D040887070BD90B0FEF70FFB002411
:103550000120CDE90B44CDE9094406900A904FF4CF
:10356000E0104FF4803102250F9006A8CDE9071432
:10357000CDE90D51FEF7A8FC20B1EFF3108072B633
:10358000FEE700BF0F20CDE901054FF48060CDE9D3
:10359000040401A802210394FEF78EFB20B1EFF38F
:1035A000108072B6FEE700BF41F21804C4F20204B4
:1035B000206840F6000840F0100020602068C4F247
:1035C000010800F0100006900698206808F50065D4
:1035D00040F02000206020684FF4005100F02000EF
:1035E000069006982068002240F0040020602068C1
:1035F0004FF4005600F0040006900698206800275B
:1036000040F008002060206800F00800069006984E
:103610002846FEF791FA40461F2100224FF01F0A6C
:10362000FEF78AFA069606AE4FF001094FF0020B3C
:1036300028463146CDE90799CDF824B0FEF76AF95E
:1036400040463146CDE906A9CDE9087BFEF762F98F
:1036500054F8040C002140F0010044F8040C54F824
:10366000040C002200F00100069006980C200C24A7
:10367000FEF7E6FA0C20FEF7D3FA0D200021002217
:103680000D25FEF7DDFA0D20FEF7CAFA40F2FC0622
:10369000C2F20006A8F52441304640F81C1F122152
:1036A0004FF48032C0E90117C0E90372C0E9057721
:1036B0008783FDF7C9FD28B1EFF3108072B600BF14
:1036C000FEE700BFCDE90E9506F11C0506A92846C8
:1036D000CDE90677CDE90877CDE90A77CDE90C7910
:1036E000FDF770FB40F2C810A8F54041C2F200009F
:1036F0004FF4E13280E88600C0E90377C0E905476E
:10370000C761FFF787F828B1EFF3108072B600BFEA
:10371000FEE700BF2846FDF7E1FE28460221FDF73F
:10372000E7FA40F2980540F2C814C2F200050820FA
:103730000021C2F20004C5E91411C5E9161085F88C
:103740006010691C20460122FFF754F905F135018C
:1037500020461522FFF724FAFEE7000010B582B0DC
:10376000502839D0462845D0422873D140F29804D9
:10377000C2F2000494F82D0004F12C01207204F12F
:103780000A000222FDF70EFA1222207AA17A44F8EA
:103790004C2F34F8302C04F82A0CADF8002054F8E3
:1037A0002E2C8DF8060040F2FC00C2F2000004F856
:1037B000291CCDF802208DF80710A4F148031C3015
:1037C0006A462146FDF7ACFA002843D0EFF310809B
:1037D00072B600BFFEE700BF40F29801C2F20001DE
:1037E00001F112002C31012202B0BDE81040FDF7BA
:1037F000D9B900BF40F29804C2F2000404F10E00EF
:1038000004F12C010222FDF7CDF994F82D0004F10A
:10381000240184F82700E08904220723FFF744FEEF
:103820004FF41D70214641F84C0F606A51F8242C6A
:10383000009040F2FC00C2F200000192A1F14803A6
:103840001C306A46FDF76CFA20B1EFF3108072B6B7
:10385000FEE700BF02B010BD5FEA400C08BF91F068
:10386000000F4FEA8C234FEAC12243EA51514FEA3D
:103870001C5018BF00F5F0404FEA300018BF41F06F
:1038800000415FEA6C5C00F02980BCF1FF3F08BF9B
:1038900040F080407047130C06BF12044FF0100C2C
:1038A0004FF0000C130E04BF12020CF1080C130FA2
:1038B00004BF12010CF1040C930F04BF92000CF131
:1038C000020CD30F04BF52000CF1010C11464FF053
:1038D0000002A0F11F00A0EB0C00704711F0004F98
:1038E00008BF704731F000413FF4D5AF0B0C06BF65
:1038F00009044FF0100C4FF0000C0B0E04BF09022E
:103900000CF1080C0B0F04BF09010CF1040C8B0F18
:1039100004BF89000CF1020CCB0F04BF49000CF16D
:10392000010CCCF1200322FA03F341EA030102FA6D
:103930000CF2A0EB0C0000F10100704723F07F4770
:1039400020F07F4C80EA030000F00040ACEB07035E
:1039500003F57C5303F1FF032DE9804909B44FEAD5
:10396000144324EA03484FEA154B25EA0B4E0FF2A5
:10397000042606EB13273E7803FB0667C7F500070E
:1039800007FB06F64FEAD64606F102064FEA543721
:1039900007FB066CCCF1005C4FEA1C472CEA074C95
:1039A0000CFB06F507FB06F404EB15464FEA9616EA
:1039B00049085FEA320234BF00204FF000404FEA6E
:1039C000D13706FB07FC4FEA1C4C0CFB0BF7D21B54
:1039D00003FB0CF761EB07010CFB0EF7B0EB0740A4
:1039E00072EB17420CFB08F734BFA2EB0742B2EBB5
:1039F000074261EB17414FEA0C444FEA910706FB7F
:103A000007FC4FEA1C4C0CFB0BF7B0EBC74072EB0A
:103A1000573203FB0CF734BFA2EBC742B2EBC742ED
:103A200061EB57310CFB0EF7B0EBC70072EB57722E
:103A30000CFB08F734BFA2EBC702B2EBC70261EB85
:103A400057714FEA816141EA92114FEA826242EA7C
:103A500090124FEA806004EBCC04039F4FEAD13709
:103A600006FB07FC4FEA1C4C0CFB0BF7D21B03FBBD
:103A70000CF761EB07010CFB0EF7B0EB074072EBA4
:103A800017420CFB08F734BFA2EB0742B2EB074228
:103A900061EB17414FEA8C5504EB9C244FEA9107E8
:103AA00006FB07FC4FEA1C4C0CFB0BF7B0EBC740C6
:103AB00072EB573203FB0CF734BFA2EBC742B2EBF9
:103AC000C74261EB57310CFB0EF7B0EBC70072EB4E
:103AD00057720CFB08F734BFA2EBC702B2EBC70268
:103AE00061EB57714FEA816141EA92114FEA8262BC
:103AF00042EA90124FEA806015EB4C2544F1000435
:103B00004FEAD13706FB07FC4FEA1C4C0CFB0BF7C6
:103B1000D21B03FB0CF761EB07010CFB0EF7B0EBBC
:103B2000074072EB17420CFB08F734BFA2EB0742C9
:103B3000B2EB074261EB17414FEA813141EA924112
:103B40004FEA823242EA90424FEA80304FEA0C76E6
:103B500015EB1C1544F1000448EA03434EEA0B48F8
:103B60004FF0000EB2EB080C71EB030724BF624666
:103B700039464EEB0E0E4FF0000B001852414941F2
:103B80004BEB0B0BB2EB080C71EB03077BF1000B5B
:103B900024BF624639464EEB0E0E4FF0000B001864
:103BA000524149414BEB0B0BB2EB080C71EB030795
:103BB0007BF1000B24BF624639464EEB0E0E51EAF4
:103BC000020718BF46F0010616EB0E7655F100020B
:103BD00054F1000103D5BDE88901BDE80088BDE8C6
:103BE0008901BDE80048B619524141EB0101A3F13A
:103BF0000103704780807F7E7D7C7B7A7978777641
:103C000076757473727171706F6E6E6D6C6C6B6AB9
:103C10006A69686867666665646463636261616057
:103C2000605F5F5E5E5D5D5C5C5B5B5A5A595958D4
:103C3000585757565655555554545353525252513E
:103C4000515050504F4F4F4E4E4D4D4D4C4C4C4B94
:103C50004B4B4A4A4A4949494848484747474746DB
:103C60004646454545444444444343434342424217
:103C7000424141419C46002B30D477002BD04FEA83
:103C800037071CB503B44FF010004FF01001BAF124
:103C9000000F06D0BCF1000FDCBF40F0080040F080
:103CA00008014FF000000FBCBDE810400BF1010B04
:103CB000BBF1010F08BF5FEA170722BF12F1010233
:103CC00011F101014FF0004143F1000300F0004009
:103CD00043EA00007047F9D35708D0E746EA0646A2
:103CE0004FEA164613F1400F1FDD13F1200FDFBF1F
:103CF00016430A46002120335B42BED0C3F12007A1
:103D000046EA06464FEA164602FA07F746EA07066B
:103D100022FA03F2C3F1200701FA07F742EA070289
:103D200021FA03F14FF00003A7E746EA020646EA4C
:103D300006464FEA164646EA0106BCBF46EA064674
:103D4000360C4FF000034FF000024FF0000194E7F3
:103D50002DE9804C70B49A46934691E8380007C824
:103D600031EA400C48BF34EA430C03D5FFF7E6FDC7
:103D7000FFF780FFF0BCBDE8008C2DE9804C70B4EB
:103D80009A46934691E8380007C810F0804F08BF64
:103D900013F0804F03D100F005F8FFF76BFFF0BC84
:103DA000BDE8008C20F07F4723F07F4C80EA0300C1
:103DB00000F0004007EB0C03A3F57C53A3F1FE03D6
:103DC00092F0000F00F0B38095F0000F00F07780C4
:103DD0002DE901494FEA114021EA00484FEA144613
:103DE00024EA064700FB06FC08FB06F607FB08F87A
:103DF00018EB06484CEB164C00FB07F718EB07488E
:103E00004CEB17404FEA124B22EA0B4E4FEA154695
:103E100025EA06470BFB06FC0EFB06F607FB0EFE2B
:103E20001EEB064E4CEB164C0BFB07F71EEB074E3A
:103E30004CEB174B18EB0B0840F1000018EB0E0B86
:103E400058EB000840F100008F1A4FF000014FF0CE
:103E500000063CBFC943661B14BFB5EB040C002130
:103E60003CBFC943F61B4FEA174427EA04454FEA13
:103E70001C472CEA074C04FB076205FB07F70CFB09
:103E800005F616EB074642EB174204FB0CFC16EB5B
:103E90000C4642EB1C421BEB060658EB020241416A
:103EA0004EEA8E0E46EA9E0601D5BDE80189B61996
:103EB000524141EB0101A3F10103BDE801894FEA41
:103EC000144524EA05464FEA114721EA074C05FB51
:103ED00007F406FB07F70CFB06F111EB074144EB77
:103EE000174405FB0CFC11EB0C4144EB1C444FEA5E
:103EF000124722EA074C05FB07F206FB07F70CFB0B
:103F000006F616EB074642EB174205FB0CFC16EBD8
:103F10000C4642EB1C456A1854F1000148BF70473B
:103F2000B619524141EB0101A3F10103704795F02D
:103F3000000F37D04FEA114221EA02464FEA1447F8
:103F400024EA074C02FB07F106FB07F70CFB06F41B
:103F500014EB074441EB174102FB0CFC14EB0C443F
:103F600041EB1C414FEA154725EA074C02FB07F5D8
:103F700006FB07F70CFB06F616EB074645EB174565
:103F800002FB0CFC16EB0C4645EB1C42121951F1DE
:103F9000000148BF7047B619524141EB0101A3F13E
:103FA000010370474FEA144524EA05464FEA1147DA
:103FB00021EA074C05FB07F106FB07F70CFB06F2AD
:103FC00012EB074241EB174105FB0CFC12EB0C42D4
:103FD00051EB1C414FF0000648BF7047921841EB6F
:103FE0000101A3F101037047490050EAC12018BF45
:103FF00004204A0D18BF40F0010040F2FF72B2EBFE
:10400000515F08BF40F00200012808BF052070473B
:1040100030380A2801D20120704700207047000084
:1040200010B500290AD00878002807D00548784440
:10403000FCF768FD002801D0002010BD024878443C
:1040400010BD0000F2010000EA0100000808A0F520
:1040500000114FEA3101704743004FEAD30C4FEA99
:104060003C0C43401FBF40070CF1605113F0FE4F62
:1040700070471CF0006F03D10CF000410020704726
:104080000CF0004343EA507040EACC0010B500F059
:104090000EF800BF000000924FEA0001FFF7D6BF04
:1040A0004FF00041A1F500214FF0000070470EF1E4
:1040B000020E2EF0030E5EF8044B244204D44FEAA5
:1040C0004102B2F17F4F11D84FEA4003B3F17F4F65
:1040D0000CD80ED14FEAD07C0CEB4C0C0CF1020C3E
:1040E000B2F17F4F08BF4CEBD17C04E04FF0080CDD
:1040F00001E04FEAD17C0CEB4C0324FA03F404F00A
:104100000704B4F1040C06D20EEB840CBDE8104099
:104110004CF0010C6047DFE80CF0070802024FF09A
:104120000040A0F5800010BD0846420018BFD2F143
:10413000807288BF00F0004010BDFCF760BA00003C
:1041400002400000000000A0000000000540000048
:10415000000000C8000000000C4000000000409C6F
:1041600000000000194000000020BCBE000000005C
:1041700034400000BFC91B8E00000004B5400000A1
:10418000504BCFD06607E2CF010000006C41000029
:104190003E8251AADFEEA73401000000D9420000A0
:1041A000DCB5A0E23A301F97FFFFFFFFB4450000E7
:1041B000FD25A0C8E9A3C14FFFFFFFFFFF3F00009F
:1041C0000000008000000000FF3F000000000080B1
:1041D00000000000000000000000000001020304D5
:1041E000060708090000000001020304010202039F
:1041F0000405060708090A0B0C0D0E0F101000002D
:10420000404200080000002038000000280100089B
:104210007842000838000020E00700004401000850
:104220001C00000043000000F8FFFFFF0C0000002E
:104230000E0000000F0000002E0000000000000033
:104240004C0000000000520000000000560000007A
:1042500000000000500000000000000059000000B5
:10426000000000004100000000000000010000000C
:08427000100000000024F4001E
:04000005080000ED02
:00000001FF
